:10000300535443313557344B333253340D0A55610E
:0D001300727433205465737420210D0A00AF
:10002600E5A2543FF5A275985075AC10758E4075D3
:100036008920758BFA758DFAD28ED2AC75D7D075AC
:10004600D6FF758E5475AF08D2AF7BFF7A00790361
:0F005600120065D2B61200FBC2B612010A80EB8F
:03008B0002008EE2
:10008E00C0E0C0F0C083C082C0D075D008E5AC30EF
:10009E00E00853ACFEAFAD120132E5AC30E10553D2
:0F00AE00ACFDC200D0D0D082D083D0F0D0E032F1
:03002300020119BE
:0D011900309802C298309904C299C2013298
:08013B002000FDD2008FAD226F
:100065008B138A148915AB13AA14A9151200E26023
:10007500130515E5157002051414F91200E2FF12B7
:05008500013B80E222B6
:090132002001FDEFD201F5992234
:1000BD008B108A118912AB10AA11A9121200E260DD
:1000CD00130512E5127002051114F91200E2FF1268
:0500DD00013280E22267
:0E00FB0000007F557E0C7D9BDDFEDEFCDFFAF3
:0101090022D3
:0E010A0000007F117ED07D1BDDFEDEFCDFFAE3
:0101180022C4
:03000000020126D4
:0C012600787FE4F6D8FD758120020026E9
:1000E200BB010689828A83E0225002E722BBFE021C
:0900F200E32289828A83E493224F
:00000001FF
