:0300000002009665
:0C009600787FE4F6D8FD7581240200DDBF
:0C0208000A10AAAAAA966900032001228D
:10002600E5A2543FF5A253BAFB75985075AC10750E
:100036008410758E40758920758BFA758DFAD28E6F
:10004600D2AC75D7D075D6FF758E5475AF18D2AFB2
:1000560012007BE4F52474102524F8E6FF12021E34
:1000660074102524F8E6FF1202270524E524C3941C
:050076000A40E380DBFD
:03002300020122B5
:10012200C0E0C0F0C083C082C0D075D008C2AFE5C5
:100132009830E0095398FEE599FF12021EE59830C7
:10014200E1055398FDC200D2AFD0D0D082D083D087
:04015200F0D0E032D7
:03008B000200036D
:10000300C0E0C2AFE5AC30E00353ACFEE5AC30E199
:0B0013000553ACFDC201D2AFD0E032BB
:030093000201C5A2
:1001C500C0E0C2AFE58430E0035384FEE58430E14E
:0B01D500055384FDC202D2AFD0E0321F
:080227002000FDD2008F992296
:100156008B1A8A1B891CAB1AAA1BA91C1201E06008
:1001660013051CE51C7002051B14F91201E0FF12B1
:05017600022780E222D7
:090215002001FDEFD201F5AD223C
:10017B008B1D8A1E891FAB1DAA1EA91F1201E060D1
:10018B0013051FE51F7002051E14F91201E0FF1283
:05019B00021580E222C4
:09021E002002FDEFD202F5852259
:1001A0008B218A228923AB21AA22A9231201E06094
:1001B000130523E5237002052214F91201E0FF1252
:0501C000021E80E22296
:0E007B0000007F557E0C7D9BDDFEDEFCDFFA73
:010089002254
:0E01F90000007F117ED07D1BDDFEDEFCDFFAF4
:0102070022D4
:1000A200020026E493A3F8E493A34003F68001F24E
:1000B20008DFF48029E493A3F85407240CC8C3335F
:1000C200C4540F4420C8834004F456800146F6DF2E
:1000D200E4800B0102040810204080900208E47EB4
:1000E200019360BCA3FF543F30E509541FFEE49323
:1000F200A360010ECF54C025E060A840B8E493A3EA
:10010200FAE493A3F8E493A3C8C582C8CAC583CA14
:10011200F0A3C8C582C8CAC583CADFE9DEE780BECC
:0102140000E9
:1001E000BB010689828A83E0225002E722BBFE021D
:0901F000E32289828A83E4932250
:00000001FF
