:03000000020159A1
:0C015900787FE4F6D8FD7581350201A026
:10007300022300000A2600000000037100010001B2
:08008300063000010002000339
:0B02A90012022F12028B12009680F848
:10022F0053BAFBE5A2543FF5A2759850758410752B
:10023F00D7D075D6FF758E14438E01D2AC75AF1023
:03024F00D2AF2209
:0300930002002642
:0B002600C0E0C083C082C0D075D008CD
:10003100C2AFE58430E026AF85C3E5249464E523AF
:10004100940050160524E524AC23700205231424E2
:1000510000F58274003CF583EFF05384FEE58430B3
:09006100E1055384FDC201D2AF98
:09006A00D0D0D082D083D0E03266
:10009600E4F9F516900000E0B45509A3E0B4AA040B
:1000A600D2028002C202200203020158900002E03E
:1000B600FDC4540F75F00AA4FFED540F2FFFEFFC9B
:1000C600A3E0FBC4540F75F00AA4FFEB540F7A00AB
:1000D6002FFFEA35F0CF2400F522EF3CF5217F040F
:1000E60074002FF582E43400F583E0FE74262FF8C1
:1000F600E6B50601090FBF0AE7E964067054790BF5
:10010600E522240BFFE43521FEE9C39FE49E50124D
:10011600740029F582E43400F583E02516F5160906
:1001260080DE740B2522F58274003521F583E065A7
:1001360016701FF9E925E02430F8E6FF90000BE081
:10014600FEEFB50609A3E0FEEFB50602892509B95B
:0201560003E2C2
:010158002284
:0902B4002001FDEFD201F58522C5
:1001E5008B108A118912AB10AA11A9121202526042
:1001F500130512E5127002051114F9120252FF12CD
:0502050002B480E222BA
:0300230002026B6B
:10026B00C2AF309802C298309904C299C200D2AF83
:01027B003250
:0802BD002000FDD2008F992200
:10020A008B138A148915AB13AA14A915120252600A
:10021A00130515E5157002051414F9120252FF129E
:05022A0002BD80E2228C
:0E027C0000007F557E0C7D9BDDFEDEFCDFFA70
:01028A002251
:0E028B0000007FA97E187D3BDDFEDEFCDFFA61
:010299002242
:10000300EF1FAA0670011E4A6013E4FCFDC3ED94C2
:0D00130044EC940250EA0DBD00010C80F099
:0100200022BD
:0E029A0000007F117ED07D1BDDFEDEFCDFFA52
:0102A8002233
:100165000202A9E493A3F8E493A34003F68001F205
:1001750008DFF48029E493A3F85407240CC8C3339B
:10018500C4540F4420C8834004F456800146F6DF6A
:10019500E4800B0102040810204080900073E47E87
:1001A500019360BCA3FF543F30E509541FFEE4935F
:1001B500A360010ECF54C025E060A840B8E493A326
:1001C500FAE493A3F8E493A3C8C582C8CAC583CA51
:1001D500F0A3C8C582C8CAC583CADFE9DEE780BE09
:01008B000074
:10025200BB010689828A83E0225002E722BBFE02AA
:09026200E32289828A83E49322DD
:00000001FF
