:10000300535443313557344B333253340D0A55610E
:0D001300727433205465737420210D0A00AF
:10002600E5A2543FF5A2759850758E4075892075E6
:100036008BFA758DFAD28ED2ACD2AF7BFF7A00796D
:0C004600031200521200A81200B780EF55
:0300230002009048
:10009000C0D0309809C298859980A29A92A23099CE
:0800A00004C299C200D0D03265
:0900D2002000FDEFD200F5992297
:100052008B088A09890AAB08AA09A90A12007760E3
:1000620013050AE50A7002050914F9120077FF1256
:0500720000D280E22233
:0E00A80000007F557E0C7D9BDDFEDEFCDFFA46
:0100B6002227
:0E00B70000007F117ED07D1BDDFEDEFCDFFA37
:0100C5002218
:030000000200C635
:0C00C600787FE4F6D8FD7581200200264A
:10007700BB010689828A83E0225002E722BBFE0287
:09008700E32289828A83E49322BA
:00000001FF
