:10002600E5A2543FF5A253BAFB75985075AC10750E
:100036008410758E40758920758BFA758DFAD28E6F
:10004600D2AC75D7D075D6FF758E5475AF18D2AFB2
:030056001201DCB8
:0A005900D2B61201EFC2B61201FE8A
:0200630080F427
:0300230002021BBB
:0D021B00309802C298309904C299C2003296
:03008B0002010966
:10010900C0E0C0F0C083C082C0D075D008E5AC3073
:10011900E00853ACFEAFAD120245E5AC30E1055342
:0F012900ACFDC201D0D0D082D083D0F0D0E03274
:030093000201382F
:10013800C0E0C0F0C083C082C0D075D008E584306C
:10014800E0085384FEAF85120234E58430E105539C
:0F01580084FDC202D0D0D082D083D0F0D0E0326C
:090234002000FDEFD200F5992233
:100065008B108A118912AB10AA11A9121200036014
:10007500130512E5127002051114F9120003FF129F
:05008500023480E222BC
:08023D002001FDD2018FAD226A
:100192008B138A148915AB13AA14A91512000360D4
:1001A200130515E5157002051414F9120003FF1268
:0501B200023D80E22285
:080245002002FDD2028F852288
:1001B7008B168A178918AB16AA17A918120003609D
:1001C700130518E5187002051714F9120003FF123A
:0501D700024580E22258
:1001DC0075960C7595F3759220759110E4F5B275C2
:0301EC00B103223A
:1000960020A76D30936AD2A520A760EF30E004D286
:1000A600A0800AA2A0E43354FE24FF92A0EF30E120
:1000B60008A2A0E43344028006A2A0E43354FD243F
:1000C600FF92A0EF30E208A2A0E43344048006A227
:1000D600A0E43354FB24FF92A0EF30E308A2A0E48F
:1000E6003344088006A2A0E43354F724FF92A0D23A
:1000F600A43093FDC2A5C2A47F0022C2A57F01221F
:030106007F012254
:10016700E4F51930A62230A00343190130A1034357
:10017700190230A20343190430A303431908D29389
:0A01870012020DC293AF19227F008F
:01019100224B
:0D020D00E4FFE4FE000EBEFFFB0FBFFFF597
:01021A0022C1
:0E01EF0000007F557E0C7D9BDDFEDEFCDFFAFE
:0101FD0022DF
:0E01FE0000007F117ED07D1BDDFEDEFCDFFAEF
:01020C0022CF
:03000000020228D1
:0C022800787FE4F6D8FD758120020026E6
:10000300BB010689828A83E0225002E722BBFE02FB
:09001300E32289828A83E493222E
:00000001FF
