:10000300535443313557344B333253340D0A55610E
:0D001300727433205465737420210D0A00AF
:10002600E5A2543FF5A253BAFB75985075AC10750E
:100036008410758E40758920758BFA758DFAD28E6F
:10004600D2AC75D7D075D6FF758E5475AF18D2AFB2
:100056007BFF7A007903120119D2B6120163C2B688
:0500660012017280EBA5
:0300230002018156
:0D018100309802C298309904C299C2003231
:03008B00020096DA
:10009600C0E0C0F0C083C082C0D075D008E5AC30E7
:1000A600E00853ACFEAFAD1201ABE5AC30E1055351
:0F00B600ACFDC201D0D0D082D083D0F0D0E032E8
:030093000200C5A3
:1000C500C0E0C0F0C083C082C0D075D008E58430E0
:1000D500E0085384FEAF8512019AE58430E10553AB
:0F00E50084FDC202D0D0D082D083D0F0D0E032E0
:09019A002000FDEFD200F59922CE
:1000F4008B108A118912AB10AA11A91212006B601D
:10010400130512E5127002051114F912006BFF12A7
:05011400019A80E222C7
:0801A3002001FDD2018FAD2205
:100119008B168A178918AB16AA17A91812006B60D3
:10012900130518E5187002051714F912006BFF1270
:0501390001A380E22299
:0801AB002002FDD2028F852223
:10013E008B138A148915AB13AA14A91512006B60C0
:10014E00130515E5157002051414F912006BFF1254
:05015E0001AB80E2226C
:0E01630000007F557E0C7D9BDDFEDEFCDFFA8A
:01017100226B
:0E01720000007F117ED07D1BDDFEDEFCDFFA7B
:01018000225C
:0300000002018E6C
:0C018E00787FE4F6D8FD75812002002681
:10006B00BB010689828A83E0225002E722BBFE0293
:09007B00E32289828A83E49322C6
:00000001FF
