:03000000020507EF
:0C050700787FE4F6D8FD75812002054ED7
:100A4900000000000000000000000000000000009D
:100A5900000000000000000000000000000000008D
:040A69000000000089
:100254004C00ADEF01FFFFFFFF0100030100054A61
:100264000020EF01FFFFFFFF010004024C004AEFF2
:1002740001FFFFFFFF0100030500094A00A3EF018E
:10028400FFFFFFFF010004084A000AEF01FFFFFF20
:10029400FF010004094A0056EF01FFFFFFFF0100C0
:1002A40006064A0099EF01FFFFFFFF010006074A17
:1002B4000000EF01FFFFFFFF0100070C4C0060EF9F
:1002C40001FFFFFFFF0100030D00114C0014EF01BB
:1002D400FFFFFFFF0100030300074A0079EF01FF5E
:1002E400FFFFFF010008044C008DEF01FFFFFFFF3B
:1002F4000100031D00214A0083EF01FFFFFFFF01FE
:1003040000050E4C006DEF01FFFFFFFF0100030F1E
:1003140000136020002A000000000000000000001C
:1003240000000000000000000000000000000000C9
:0A03340000000000000041006C0012
:03008E00020A91D2
:0300930002092639
:0B092600C0E0C083C082C0D075D008C4
:10093100C2AFE58430E028AF8590006CE0FEC3943F
:10094100205014742A2EF582E43400F583EFF090E0
:10095100006CE004F0800590006CE4F05384FEE547
:0B0961008430E1055384FDC202D2AFD8
:09096C00D0D0D082D083D0E0325B
:090B2D0090006CE0FFE4F0D2A995
:010B3600229C
:060B4700120003C2A92206
:040975007B017D0A7B
:0B0979009000C0EBF0A3EAF0A3E9F04F
:10098400E4A3F0A3F07F06EFC39D50249000C0E0E1
:10099400FBA3E0FAA3E0F98F827583001201A5FBA3
:1009A4009000C4E02BF09000C3E03400F00F80D737
:0809B4009000C3E0FEA3E0FF88
:0109BC002218
:10070C009000C5E4F0A3F0A3F0A3F0A3F07A007975
:06071C00AD7B017D0CFC29
:100722007F2090002AE4F0A3DFFC7F20120B479089
:1007320000C8E0FEA3E0FF4E60109000C5E0FBA3FE
:10074200E0FAA3E0F9AD07120B47120B2D7FDC7E16
:1007520005120A9190002AE0B4EF0BA3E0B401065F
:08076200900033E0FF227FFE4E
:01076A00226C
:0B0B22007F587E0212008E12070C228A
:030B4D007F002204
:0400870012070C222E
:0507C8009000BCEFF001
:1007CD0078BD7C007D017BFF7A0A79497E007F032D
:1007DD00120166E4FC9000BCE0A3F07A00792012CF
:1007ED0009759000BDE02FFDEC3EA3F0AF05A3EF22
:1007FD00F09000C57401F0A37400F0A374BDF0A3D4
:10080D00E4F0A37403F07B017A0079207D0A7C006B
:03081D001207229D
:0108200022B5
:100AFC009000C5E4F0A3F0A3F0A3F0A3F07A007982
:050B0C004A12071D2242
:050821009000BCEFF0A7
:1008260078BD7C007D017BFF7A0A794C7E007F03D0
:10083600120166E4FC9000BCE0A3F07A0079A312F2
:1008460009759000BDE02FFDEC3EA3F0AF05A3EFC8
:10085600F09000C57401F0A37400F0A374BDF0A37A
:10086600E4F0A37403F07B017A0079A37D0A7C008F
:0308760012072244
:01087900225C
:05076B009000F9EFF021
:1007700078FA7C007D017BFF7A0A794F7E007F0347
:10078000120166E4FC9000F9E0A3F07B017A0079A5
:100790000A7D0A1209799000FAE02FFDEC3EA3F0E1
:1007A000AF05A3EFF09000C57401F0A37400F0A3AF
:1007B00074FAF0A3E4F0A37403F07B017A00790AE1
:0707C0007D0A7C00120722F4
:0107C700220F
:0B0593009000E3EFF0A3ECF0A3EDF00C
:10059E0078E67C007D017BFF7A0A79527E007F052A
:1005AE001201669000E3E09000E6F09000E4E0FCBB
:1005BE00A3E0FDEC9000E7F0A3EDF07B017A00796B
:1005CE00567D0A1209799000E6E07C002FFFEC3E82
:1005DE00FEA3E02FFFEC3EFEA3E02FFDEC3EA3F0CA
:1005EE00AF05A3EFF09000C57401F0A37400F0A363
:1005FE0074E6F0A3E4F0A37405F07B017A0079565B
:07060E007D0A7C00120722A7
:0106150022C2
:0B0616009000EBEFF0A3ECF0A3EDF080
:1006210078EE7C007D017BFF7A0A79577E007F0599
:100631001201669000EBE09000EEF09000ECE0FC1F
:10064100A3E0FDEC9000EFF0A3EDF07B017A0079DF
:10065100997D0A1209799000EEE07C002FFFEC3EB3
:10066100FEA3E02FFFEC3EFEA3E02FFDEC3EA3F046
:10067100AF05A3EFF09000C57401F0A37400F0A3DF
:1006810074EEF0A3E4F0A37405F07B017A0079998C
:070691007D0A7C0012072224
:01069800223F
:0E03E6009000D9EEF0A3EFF0A3ECF0A3EDF041
:1003F40078DD7C007D017BFF7A0A795C7E007F06D4
:100404001201669000D9E0FCA3E0FDEC9000DDF061
:10041400A3EDF09000DBE0FCA3E0FDEC9000DFF046
:10042400A3EDF07B017A0079007D0A12097990002E
:10043400DDE07C002FFFEC3EFEA3E02FFFEC3EFE50
:10044400A3E02FFFEC3EFEA3E02FFDEC3EF0AF0552
:10045400A3EFF09000C57401F0A37400F0A374DD61
:10046400F0A3E4F0A37406F07B017A0079007D0A1E
:050474007C00120722CC
:010479002260
:100ACA009000C5E4F0A3F0A3F0A3F0A3F07B017AB1
:0A0ADA000079607D0CFC1207222257
:0B087A009000BCEBF0A3EAF0A3E9F053
:10088500E4A3F0F99000C5C9F0A3F0A3E9F0E4A34F
:10089500F0A3F07B017A0079147D0CFC12072290FD
:1008A50000BFEFF0701F900034E0FEA3E07C002451
:1008B50000FFEC3EF99000BCE0FBA3E0FAA3E0C921
:0A08C5008FF01202359000BFE0FF33
:0108CF002206
:10033F009000CDEFF0A3ECF0A3EDF0A3EAF0A3EB68
:01034F00F0BD
:1003500078D27C007D017BFF7A0A79627E007F077C
:100360001201669000CDE09000D2F09000CEE0FC4B
:10037000A3E0FDEC9000D3F0A3EDF09000D0E0FC02
:10038000A3E0FDEC9000D5F0A3EDF07B017A0079BD
:10039000797D0A1209799000D2E07C002FFFEC3EB3
:1003A000FEA3E02FFFEC3EFEA3E02FFFEC3EFEA3FA
:1003B000E02FFFEC3EFEA3E02FFDEC3EA3F0AF05E7
:1003C000A3EFF09000C57401F0A37400F0A374D201
:1003D000F0A3E4F0A37407F07B017A0079797D0A39
:0503E0007C0012072261
:0103E50022F5
:0B08D0009000FDEBF0A3EAF0A3E9F0BC
:1008DB00E4A3F0F99000C5C9F0A3F0A3E9F0E4A3F9
:1008EB00F0A3F07B017A00798D7D0CFC120722902E
:1008FB000100EFF0701F900034E0FEA3E07C0024B9
:10090B0000FFEC3EF99000FDE0FBA3E0FAA3E0C989
:0A091B008FF0120235900100E0FF9A
:0109250022AF
:080699009000F3EFF0A3EDF077
:1006A10078F57C007D017BFF7A0A79697E007F0401
:1006B100120166E4FC9000F3E09000F5F09000F484
:1006C100E09000F6F07B017A0079837D0A120979C6
:1006D1009000F5E02FFFEC3EFEA3E02FFDEC3E90F5
:1006E10000F8F0AF05A3EFF09000C57401F0A3741A
:1006F10000F0A374F5F0A3E4F0A37404F07B017A95
:0A0701000079837D0A7C00120722B4
:01070B0022CB
:0B002600900101EBF0A3EAF0A3E9F069
:10003100E4FFA3F0F99000C5C9F0A3F0A3E9F0E44F
:10004100A3F0A3F07B017A00796D7D0CFC120722ED
:10005100EF7032900104F0900104E0FE2434F58247
:10006100E43400F583E0FD900101E0FBA3E0FAA395
:10007100E0F98E82758300ED1201D2900104E00453
:05008100F0E0B410D214
:010086002257
:10047A00120A237FE87E03120A91120B227FE87E7A
:10048A0003800A120087EF60097FC87E00120A9172
:10049A0080F17F011207C8120B3F7F011208211257
:1004AA000B3F7FE87E03800A120087EF60097FC84E
:1004BA007E00120A9180F17F021207C8120B3F12C6
:1004CA000AFC120B3F9000B9E0FBA3E0FAA3E0F9A3
:1004DA0012087A120B3F9000B9E0FBA3E0FAA3E0FE
:1004EA00F912020AFF120B3F9000B9E0FBA3E0FAEF
:0D04FA00A3E0F912020A7F00120B3F808080
:100A230053BAFBE5A2543FF5A275985075AC107507
:100A3300841075D7D075D6FF758E14438E01D2AC52
:060A430075AF18D2AF22CE
:03002300020B11BC
:100B1100C2AF309802C298309904C299C200D2AFD4
:010B210032A1
:03008B00020AAFB7
:100AAF00C0E0C2AFE5AC30E00353ACFEE5AC30E1E3
:0B0ABF000553ACFDC201D2AFD0E03205
:080B37002000FDD2008F99227D
:1009BD00900105EBF0A3EAF0A3E9F0900105E0FB4F
:1009CD00A3E0FAA3E0F912018C6017900105A3E4EE
:1009DD0075F0011201F4A9F0FA12018CFF120B3718
:0309ED0080D9228C
:080B3F002001FDD2018FAD225F
:1009F000900108EBF0A3EAF0A3E9F0900108E0FB16
:100A0000A3E0FAA3E0F912018C6017900108A3E4B7
:100A100075F0011201F4A9F0FA12018CFF120B3FDC
:030A200080D92258
:0F0AE400A3E475F0011201F4A9F0FA12018CFFDE
:090AF3002002FDEFD202F585227C
:100A6D0090010BEBF0A3EAF0A3E9F090010BE0FB92
:100A7D00A3E0FAA3E0F912018C600890010B120AB1
:040A8D00E480E822F7
:0B0003009000CAEBF0A3EAF0A3E9F0C4
:10000E00E4FEEEC39D500B9000CAE0FB120AE40E14
:02001E0080F070
:0100200022BD
:100A9100EF1FAA0670011E4A6013E4FCFDC3ED942A
:0D0AA10044EC940250EA0DBD00010C80F001
:010AAE002225
:1005130002047AE493A3F8E493A34003F68001F280
:1005230008DFF48029E493A3F85407240CC8C333E9
:10053300C4540F4420C8834004F456800146F6DFB8
:10054300E4800B0102040810204080900254E47EF2
:10055300019360BCA3FF543F30E509541FFEE493AD
:10056300A360010ECF54C025E060A840B8E493A374
:10057300FAE493A3F8E493A3C8C582C8CAC583CA9F
:10058300F0A3C8C582C8CAC583CADFE9DEE780BE57
:01033E0000BE
:10009600E709F608DFFA8046E709F208DFFA803E4C
:1000A60088828C83E709F0A3DFFA8032E309F60839
:1000B600DFFA8078E309F208DFFA807088828C83A1
:1000C600E309F0A3DFFA806489828A83E0A3F60855
:1000D600DFFA805889828A83E0A3F208DFFA804C2F
:1000E60080D280FA80C680D4806980F28033801006
:1000F60080A680EA809A80A880DA80E280CA80336F
:1001060089828A83ECFAE493A3C8C582C8CCC583E6
:10011600CCF0A3C8C582C8CCC583CCDFE9DEE780B6
:100126000D89828A83E493A3F608DFF9ECFAA9F035
:10013600EDFB2289828A83ECFAE0A3C8C582C8CC8B
:10014600C583CCF0A3C8C582C8CCC583CCDFEADEA4
:10015600E880DB89828A83E493A3F208DFF980CC06
:1001660088F0EF60010E4E60C388F0ED2402B404FF
:100176000050B9F582EB2402B4040050AF232345A6
:0601860082239000E673E5
:10018C00BB010689828A83E0225002E722BBFE0271
:09019C00E32289828A83E49322A4
:1001A500BB010CE58229F582E5833AF583E022500F
:1001B50006E92582F8E622BBFE06E92582F8E22259
:0D01C500E58229F582E5833AF583E4932273
:1001D200F8BB010DE58229F582E5833AF583E8F063
:1001E200225006E92582C8F622BBFE05E92582C80F
:0201F200F222F7
:1001F400A3F8E0C5F025F0F0E582158270021583BE
:06020400E0C838F0E8221A
:10020A00BB010A89828A83E0F5F0A3E022500687BF
:10021A00F009E71922BBFE07E3F5F009E319228981
:0B022A00828A83E493F5F074019322B4
:10023500BB010A89828A83F0E5F0A3F0225006F714
:0F02450009A7F01922BBFE06F3E5F009F3192211
:00000001FF
