:10009600537461727421003100537461727420527A
:1000A6006561642057726974652054657374210A0A
:1000B600004572617365210A005772697465210AE9
:1000C6000052656164210A00320049442053756379
:1000D600636573732100000102030405060708091E
:1000E6000A0B0C0D0E0F10111213141516171819F2
:1000F6001A1B1C1D1E1F20212223242526272829E2
:100106002A2B2C2D2E2F30313233343536373839D1
:100116003A3B3C3D3E3F40414243444546474849C1
:100126004A4B4C4D4E4F50515253545556575859B1
:100136005A5B5C5D5E5F60616263646566676869A1
:100146006A6B6C6D6E6F7071727374757677787991
:100156007A7B7C7D7E7F8081828384858687888981
:100166008A8B8C8D8E8F9091929394959697989971
:100176009A9B9C9D9E9FA0A1A2A3A4A5A6A7A8A961
:10018600AAABACADAEAFB0B1B2B3B4B5B6B7B8B951
:10019600BABBBCBDBEBFC0C1C2C3C4C5C6C7C8C941
:1001A600CACBCCCDCECFD0D1D2D3D4D5D6D7D8D931
:1001B600DADBDCDDDEDFE0E1E2E3E4E5E6E7E8E921
:1001C600EAEBECEDEEEFF0F1F2F3F4F5F6F7F8F911
:0601D600FAFBFCFDFEFF38
:1001DC001205D11204737BFF7A0079961203DA7F31
:1001EC00647E0012052E120501EF64147003EE6498
:1001FC00EF60097BFF7A00799D1203DA7BFF7A00AE
:10020C00799F1203DA7BFF7A0079B71203DA7F64E5
:10021C007E0012052E7F007E007D007C001203996B
:10022C007BFF7A0079BF1203DA7F2C7E0112052E38
:10023C007BFF7A0079DC9001097401F0A3E4F0FFF4
:10024C00FEFDFC1202E47BFF7A0079C71203DA7F11
:10025C002C7E0112052E7B017A0079009001097425
:10026C0001F0A3E4F0FFFEFDFC12033FE49001005B
:10027C00F0A3F0900100E0FEA3E0FFC3EE94015068
:10028C004C74002FF58274003EF583E0FF1205B923
:10029C00900100E0FEA3E0FF2400F58274003EF51F
:1002AC0083E0FD74DC2FF58274003EF583E4936DDE
:1002BC00600B7BFF7A0079CE1203DA80FE9001018D
:1002CC00E004F070AE900100E004F080A67BFF7AB1
:0802DC000079D01203DA80FE64
:10052E00EF1FAA0670011E4A6013E4FCFDC3ED9492
:0D053E0044EC940250EA0DBD00010C80F069
:01054B00228D
:0705D1004393F04394F02274
:040086007F03DFFE17
:01008A002253
:0F04D300A3E0FDA3A3E4FFFEE47810FC12006792
:0204E200AE0763
:1004E400E4FDC286EE30E704D2858002C2851200A4
:0C04F40086D286EE25E0FE0DEDB408E691
:0105000022D8
:10000300E4FED287C286FDD286120086EE25E0FE8C
:0F0013003087034401FEC2860DEDB408EAAF0644
:0100220022BB
:0A05AF00C2847F061204E2D2842207
:10056300E4FCC2847F051204E2120003AC07EC2012
:04057300E0F7D28457
:010577002261
:10050100E4FEFCFDC2847F901204E2E4FF1204E2E7
:10051100E4FF1204E2E4FF1204E2120003AC07124A
:0C0521000003AD07D284AF04EFFEEDFF35
:01052D0022AB
:1002E40090010512007A1205AFC2847F021204E263
:1002F4009001051204D3900105A3A3E0FEA3E4FF3B
:10030400E4FD78081204DE900105E0FCA3E0FDA3FF
:10031400E0FEA3E0FF1204E290010974FFF5F0127D
:10032400005145F06010120026FF1204E274012906
:0B033400F9E43AFA80E2D2840205638B
:10033F0090010512007AC2847F031204E290010536
:10034F001204D3900105A3A3E0FEA3E4FFE4FDFC98
:10035F0078081200671204E2900105E0FCA3E0FDAB
:10036F00A3E0FEA3E0FF1204E290010974FFF5F091
:10037F0012005145F06010120003EF12003F74019C
:0A038F0029F9E43AFA80E2D2842250
:1003990090010212007A1205AFC2847F201204E292
:1003A9009001021204D3900102A3A3E0FEA3E4FF8B
:1003B900E4FDFC78081200671204E2900102E0FCF7
:1003C900A3E0FDA3E0FEA3E0FF1204E2D28402054C
:0103D90063C0
:10047300E5A2543FF5A253BAFB75985075AC1075BD
:100483008410758E40758920758BFA758DFAD28E1E
:10049300D2AC75D7D075D6FF758E5475AF18D2AF61
:0104A3002236
:030023000205963D
:0D059600309802C298309904C299C2003218
:03008B0002054C1F
:10054C00C0E0E5AC30E00353ACFEE5AC30E1055364
:07055C00ACFDC201D0E0324A
:030093000204A4C0
:1004A400C0E0C0F0C083C082C0D075D008E58430FD
:1004B400E0085384FEAF851205B9E58430E10553A5
:0F04C40084FDC202D0D0D082D083D0F0D0E032FD
:0805B9002000FDD2008F992201
:1003DA00900102EBF0A3EAF0A3E9F0900102E0FB3E
:1003EA00A3E0FAA3E0F91200266017900102A3E441
:1003FA0075F001120051A9F0FA120026FF1205B990
:03040A0080D92274
:0805C1002001FDD2018FAD22E3
:10040D0090010BEBF0A3EAF0A3E9F090010BE0FBF8
:10041D00A3E0FAA3E0F9120026601790010BA3E404
:10042D0075F001120051A9F0FA120026FF1205C154
:03043D0080D92241
:0805C9002002FDD2028F852201
:1004400090010EEBF0A3EAF0A3E9F090010EE0FBBF
:10045000A3E0FAA3E0F9120026601790010EA3E4CE
:1004600075F001120051A9F0FA120026FF1205C919
:0304700080D9220E
:0E05780000007F557E0C7D9BDDFEDEFCDFFA71
:010586002252
:0E05870000007F117ED07D1BDDFEDEFCDFFA62
:010595002243
:030000000205A353
:0C05A300787FE4F6D8FD7581200201DCB1
:10002600BB010689828A83E0225002E722BBFE02D8
:09003600E32289828A83E493220B
:10003F00BB010689828A83F0225002F722BBFE01A0
:02004F00F3229A
:10005100A3F8E0C5F025F0F0E58215827002158362
:06006100E0C838F0E822BF
:10006700E8600FECC313FCED13FDEE13FEEF13FF77
:03007700D8F1229B
:0C007A00ECF0A3EDF0A3EEF0A3EFF022F9
:00000001FF
