:0300000002102DBE
:0C102D00787FE4F6D8FD75812102107474
:1019E60055AA000103710001000101000100001663
:0511CC0042065C00007A
:10190E001218051219771219D31205267F907E012F
:0B191E001218F0120BFC12009680EE75
:1019D300538E7F5389F0E4F58A758C70D2A9D2AF08
:0319E300D28C2281
:03000B000210B927
:0D10B900C0E0C0F0C083C082C0D075D01070
:1010C60090060674FFF0A37419F0A374E6F0900678
:1010D6005DE004F0700690065CE004F090065CE0CB
:1010E60064077004A3E064D0704990065CF0A3F036
:1010F60053AFF7900605F0900606E0FBA3E475F003
:1011060001120490A9F0FA120400F5AD7F057E00E5
:101116001218F0E5AC70047F0180027F00EF20E139
:10112600F253ACFD900605E004F0E0C3941040C70E
:0311360043AF08BC
:0B113900D0D0D082D083D0F0D0E032C4
:10197700E4F5B4F5B34393F04394F0759630759559
:08198700C07592207591102239
:100E3E00EF01FFFFFFFF010003010005EF01FFFFC0
:100E4E00FFFF01000402EF01FFFFFFFF010003059A
:100E5E000009EF01FFFFFFFF01000408EF01FFFF94
:100E6E00FFFF01000409EF01FFFFFFFF010006066F
:100E7E00EF01FFFFFFFF01000607EF01FFFFFFFF7E
:100E8E000100070CEF01FFFFFFFF0100030D001132
:100E9E00EF01FFFFFFFF010003030007EF01FFFF5C
:100EAE00FFFF01000804EF01FFFFFFFF0100031D1C
:100EBE000021EF01FFFFFFFF0100050EEF01FFFF15
:100ECE00FFFF0100030F00130000000000000000F0
:100EDE000000000000000000000000000000000004
:0C0EEE00000000000000000000000000F8
:1011D100602006090000000000000000000000007F
:1011E10000000000000000000000000000000000FE
:0811F100000000004106290086
:030087000218F06C
:030093000216153D
:0B161500C0E0C083C082C0D075D008C8
:10162000C2AFE58430E028AF85900629E0FEC39480
:1016300020501474092EF582E43406F583EFF090FF
:101640000629E004F08005900629E4F05384FEE5C5
:0B1650008430E1055384FDC208D2AFD6
:09165B00D0D0D082D083D0E0325F
:09007D00900629E0FFE4F0D2A98D
:010086002257
:061A00001218B4C2A92275
:061664007BFF7A0E794ABB
:0B166A009005D2EBF0A3EAF0A3E9F03A
:10167500E4A3F0A3F07F06EFC39D50249005D2E0CC
:10168500FBA3E0FAA3E0F98F82758300120419FB2E
:101695009005D6E02BF09005D5E03400F00F80D70B
:0816A5009005D5E0FEA3E0FF73
:0116AD00221A
:1013AC00A3F0A3E4F0A37403F07A0E794A7BFF7DDB
:0313BC000A7C00A8
:1013BF007F20900609E4F0A3DFFC7F20121A009033
:1013CF0005DAE0FEA3E0FF4E60109005D7E0FBA327
:1013DF00E0FAA3E0F9AD07121A0012007D7FD07E6C
:1013EF00071218F0900609E0B4EF0BA3E0B4010662
:0813FF00900612E0FF227FFEC0
:0114070022C2
:101873007F587E021200879005D7E4F0A3F0A3F00F
:10188300A3F0A3F07BFF7A0E793E7D0CFC1213BF0D
:011893002232
:031A06007F00223C
:101929009005D7E4F0A3F0A3F0A3F0A3F07BFF7A2E
:0A1939000E793E7D0CFC1213BF2254
:0516AE009005CAEFF0F9
:1016B30078CB7C057D017BFF7A0E79D67E007F0394
:1016C3001203DAE4FC9005CAE0A3F07D0A12166463
:1016D3009005CBE02FFDEC3EA3F0AF05A3EFF09018
:0E16E30005D77401F0A37405F074CB1213AC9C
:0116F10022D6
:101943009005D7E4F0A3F0A3F0A3F0A3F07BFF7A14
:0A1953000E79547D0CFC1213BF2224
:0516F200900646EFF038
:1016F70078477C067D017BFF7A0E79D97E007F03D0
:101707001203DAE4FC900646E0A3F07D0C1216649F
:10171700900647E02FFDEC3EA3F0AF05A3EFF09056
:0E17270005D77401F0A37406F074471213ACDA
:011735002291
:0514BD0090064AEFF06B
:1014C200784B7C067D017BFF7A0E79DC7E007F0300
:1014D2001203DAE4FC90064AE0A3F07BFF7A0E796D
:1014E2006A7D0A12166A90064BE02FFDEC3EA3F0CD
:1014F200AF05A3EFF09005D77401F0A37406F0A333
:10150200744BF0A3E4F0A37403F07A0E796A121319
:01151200B91F
:0115130022B5
:0B124D009005CAEFF0A3ECF0A3EDF059
:1012580078CD7C057D017BFF7A0E79DF7E007F05E6
:101268001203DA9005CAE09005CDF09005CBE0FCBA
:10127800A3E0FDEC9005CEF0A3EDF07BFF7A0E79AC
:10128800747D0A12166A9005CDE07C002FFFEC3EB3
:10129800FEA3E02FFFEC3EFEA3E02FFDEC3EA3F003
:1012A800AF05A3EFF09005D77401F0A37405F0A380
:1012B80074CDF0A3E4F0A37405F07BFF7A0E797483
:0312C8001213BB43
:0112CB002200
:0B12CC009005CAEFF0A3ECF0A3EDF0DA
:1012D70078CD7C057D017BFF7A0E79E47E007F0562
:1012E7001203DA9005CAE09005CDF09005CBE0FC3B
:1012F700A3E0FDEC9005CEF0A3EDF07BFF7A0E792D
:101307007E7D0A12166A9005CDE07C002FFFEC3E29
:10131700FEA3E02FFFEC3EFEA3E02FFDEC3EA3F083
:10132700AF05A3EFF09005D77401F0A37405F0A300
:1013370074CDF0A3E4F0A37405F07BFF7A0E797EF9
:031347001213BBC3
:01134A002280
:0E0F9D00900636EEF0A3EFF0A3ECF0A3EDF01B
:100FAB00783A7C067D017BFF7A0E79E97E007F061D
:100FBB001203DA900636E0FCA3E0FDEC90063AF063
:100FCB00A3EDF0900638E0FCA3E0FDEC90063CF0BE
:100FDB00A3EDF07BFF7A0E79887D0A12166A9006D4
:100FEB003AE07C002FFFEC3EFEA3E02FFFEC3EFE31
:100FFB00A3E02FFFEC3EFEA3E02FFDEC3EF0AF0590
:10100B00A3EFF09005D77401F0A37406F0A3743A24
:10101B00F0A3E4F0A37406F07BFF7A0E7988121329
:01102B00BB09
:01102C0022A1
:10195D009005D7E4F0A3F0A3F0A3F0A3F07BFF7AFA
:0A196D000E79927D0CFC1213BF22CC
:0B1514009005CAEBF0A3EAF0A3E9F099
:10151F00E4A3F0F99005D7C9F0A3F0A3E9F0E4A391
:10152F00F0A3F07BFF7A0E799E7D0CFC1213BF9017
:10153F0005CDEFF0701F900613E0FEA3E07C0024B2
:10154F0000FFEC3EF99005CAE0FBA3E0FAA3E0C967
:0A155F008FF01204A69005CDE0FF06
:01156900225F
:100EFA0090062AEFF0A3ECF0A3EDF0A3EAF0A3EB3F
:010F0A00F0F6
:100F0B00782F7C067D017BFF7A0E79EF7E007F07C1
:100F1B001203DA90062AE090062FF090062BE0FCE5
:100F2B00A3E0FDEC900630F0A3EDF090062DE0FC75
:100F3B00A3E0FDEC900632F0A3EDF07BFF7A0E7987
:100F4B00AA7D0A12166A90062FE07C002FFFEC3E5A
:100F5B00FEA3E02FFFEC3EFEA3E02FFFEC3EFEA333
:100F6B00E02FFFEC3EFEA3E02FFDEC3EA3F0AF0520
:100F7B00A3EFF09005D77401F0A37406F0A3742FC0
:100F8B00F0A3E4F0A37407F07BFF7A0E79AA121397
:010F9B00BB9A
:010F9C002232
:0B156A0090064EEBF0A3EAF0A3E9F0BE
:10157500E4A3F0F99005D7C9F0A3F0A3E9F0E4A33B
:10158500F0A3F07BFF7A0E79B47D0CFC1213BF90AB
:101595000651EFF0701F900613E0FEA3E07C0024D7
:1015A50000FFEC3EF990064EE0FBA3E0FAA3E0C98C
:0A15B5008FF01204A6900651E0FF2B
:0115BF002209
:08000E00900640EFF0A3EDF0B5
:1000160078427C067D017BFF7A0E79F67E007F04AE
:100026001203DAE4FC900640E0900642F0900641A6
:10003600E0900643F07BFF7A0E79C07D0A12166ABD
:10004600900642E02FFFEC3EFEA3E02FFDEC3E9033
:100056000645F0AF05A3EFF09005D77401F0A37441
:1000660006F0A37442F0A3E4F0A37404F07BFF7AD5
:060076000E79C01213BB5D
:01007C002261
:0B134B00900652EBF0A3EAF0A3E9F0DB
:10135600E4FFA3F0F99005D7C9F0A3F0A3E9F0E400
:10136600A3F0A3F07BFF7A0E79CA7D0CFC1213BFA3
:10137600EF7032900655F0900655E0FE2413F58284
:10138600E43406F583E0FD900652E0FBA3E0FAA301
:10139600E0F98E82758300ED120458900655E0043C
:0513A600F0E0B410D2DC
:0113AB00221F
:100726004353204572726F72210A006E6F74206CFB
:100736006F63616C686F7374206E756D626572218C
:100746000A004944204552524F5221004944204E46
:10075600756D626572205665726966696361746952
:100766006F6E2050617373214F70656E20546865FB
:1007760020446F6F72210A004944204E756D6265F0
:1007860072204572726F72210A00496420436172B9
:100796007420526561642053756363657373210A1F
:1007A600004865617274207061636B6574210A008C
:1007B6005265616C6F6164696E67210A004F7065EE
:1007C6006E2054686520446F6F72210A00506C6574
:1007D600617365205363616E207468652049442007
:1007E60043617274210A005265616479210A0046E8
:1007F600616C757265210A004E6F7720636F6D70AC
:100806006172652064617461210A0050617373210D
:100816004F70656E2054686520446F6F72210A0020
:100826004E6F742050617373210A00AAAAAA9669B2
:100836000003200122AAAAAA96690003200221AA7F
:10084600AAAA9669000330013255AA000103710075
:100856000100010100010000160001000200031062
:10086600011003F001300131033203300455AA00B0
:10087600010371000100010110FF01011655AA00D4
:10088600010371000100010110FF00001655AA00C6
:10089600010371000100010131FF01011655AA0093
:1008A600010371000100010132FF01011655AA0082
:1008B600010371000100010131FF00001655AA0075
:1008C600010371000100010132FF00001655AA0064
:1008D60001037100010001013FFF01011655AA0045
:1008E60001037100010001013FFF00001600000036
:1008F60000000000000000000000000000000000F2
:050906000000000000EC
:1011F9005405B100000000000000000000000000DC
:1012090000000000000000420577000054057E0040
:1012190000000000000000000000000000000000C5
:101229000000004A0593000000000371000100015D
:0E123900410592FFC104C102C103C100C10101
:100BFC00E4FBFE900513E0B45509A3E0B4AA04D2BB
:100C0C00098002C209200903020D14900516E0FDAB
:100C1C0075F00A8475F00AA4FCED75F00A84EC25D5
:100C2C00F090057DF09005C57404F09005C5E0FFCB
:100C3C002413F582E43405F583E0FD74932FF582DB
:100C4C00E43405F583E0B505010B9005C5E004F02F
:100C5C00E0B40AD7EB64066003020D0B7B0D900524
:100C6C007DE0F9240DFDE433FCEBC39DEC6480F8CE
:100C7C00748098501074132BF582E43405F583E0DE
:100C8C002EFE0B80D9742029F582E43405F583E01F
:100C9C006E7064742129F582E43405F583E06416E2
:100CAC00704D90057DE02422F582E43405F583E057
:100CBC00703DFBEB25E0245FF582E43408F583E41A
:100CCC0093FF90051EE0FEEFB5061DEB25E02460BA
:100CDC00F582E43408F583E493FF90051FE0FEEF02
:100CEC00B50605900592EBF00BEBB40AC680199093
:100CFC00059274FFF080117BFF7A07792680067BC2
:100D0C00FF7A07793112182BC205E4900511F0A374
:100D1C00F0900592E064036023E49005C5F0900523
:100D2C00C5E0FFC39464501474132FF582E43405AA
:0C0D3C00F583E4F09005C5E004F080E2CF
:010D48002288
:100D4900900007E0FD75F00A8475F00AA4FFED75BF
:100D5900F00A84EF25F0FFEFFCA3E0FB75F00A84AD
:100D690075F00AA4FFAEF0EB75F00A847A00EF255E
:100D7900F0FFEA3ECF2400CF3CFE900577F0A3EFC9
:100D8900F064044E700E90000BE0B48007A3E0B449
:100D99008402C204900577E0FEA3E0FF64044E706C
:100DA9000E90000BE0B48107A3E0B48502C202EF04
:100DB90064044E700E90000BE0B44107A3E0B44503
:100DC90002C203900577E07004A3E064087002D2C0
:100DD90004900577E0FEA3E0FF640C4E7002D20296
:100DE900EF64087003EE64057043D2037F02FE7D51
:100DF90088FCC3ED94ABEC940050047B0180027B2A
:100E090000EB602974022DF58274003CF583E0FB48
:100E190074B12FF58274053EF583EBF00DBD000129
:100E29000C0DBD00010C0FBF00010E80C5E4900040
:040E390000F0A3F032
:010E3D002292
:100AA70078CA7C057D017BFF7A0879F37E007F0297
:100AB7001203DA7B017A0579CA900603E4F0A3747E
:100AC70002F07F007E007D007C001214639005CA4F
:100AD700E0FD75F00A8475F00AA4FFED75F00A844D
:100AE700EF25F0FFEFFCA3E0FB75F00A8475F00A31
:100AF700A4FFAEF0EB75F00A847A00EF25F0FFEA69
:100B07003ECF2400CF3CFE9005D4F0A3EFF0F47065
:100B170002EEF4601BE0C454F0FEE42400FFEE3460
:100B270010FEE433FDE433FC9005D01204E9801194
:100B3700E49005D4F0A3F09005D01204F50000105E
:100B4700007A05797E12090BE4FCFD9005CC1204AE
:100B5700E9E4FFFEFDFC9005CCE0F8A3E0F9A3E093
:100B6700FAA3E0FBC31204C56003020BFA9005D594
:100B7700E004F070069005D4E004F09005D4E0FCA2
:100B8700A3E0FDEC9005CAF0A3EDF07F007E007DA9
:100B9700007C001217367B017A0579CA9005DDE4DF
:100BA700F0A37402F07F007E007D007C0012140821
:100BB7009005CAE090057EF09005CBE090057FF0A8
:100BC7009005D0E0FCA3E0FDA3E0FEA3E0FF121731
:100BD700367B017A05797E9005D0E0FCA3E0FDA382
:100BE700E0FEA3E0FF9005DDE4F0A37414F0121417
:040BF70008D322C33A
:010BFB0022D7
:0A090B007B017F007E107D007C0060
:0F0915009005D6EBF0A3EAF0A3E9F0A31204E9F2
:1009240078DD7C057D017BFF7A0879F57E007F0206
:100934001203DA9005DF7402F078E07C057D017B18
:10094400FF7A0879F77E007F141203DA9005D9E064
:10095400FCA3E0FDA3E0FEA3E0FF9005F81204E988
:100964007B017A0579DD900603E4F0A37402F07F3D
:10097400007E007D007C001214639005DDE0F975B3
:10098400F00A8475F00AA4FFE975F00A84EF25F0F3
:10099400FFEFFCA3E0F975F00A8475F00AA4FFAE3A
:1009A400F0E975F00A847A00EF25F0FFEA3ECF24DF
:1009B40000CF3CFEEFF47002EEF4601BEFC454F081
:1009C400FEE42400FFEE3410FEE433FDE433FC9037
:1009D40005F41204E9800DE4FEFF9005F41204F519
:1009E400000010009005D7E475F00212047A900517
:1009F400F4E0FCA3E0FDA3E0FEA3E0FFA3E0F8A382
:100A0400E0F9A3E0FAA3E0FBC31204C54003020A21
:100A1400A37B017A0579E09005F8E0FCA3E0FDA34F
:100A2400E0FEA3E0FF900603E4F0A37414F01214B4
:100A3400639005D6E0FBA3E0FAA3E0F9120400FFFB
:100A44009005DFE0FE24E0F582E43405F583E0B5AB
:100A54000718EEC3941450129005DFE004F09005DB
:100A6400D7E475F00112047A80C79005DFE0B4146E
:100A74000B9005F8A3A3E0FEA3E0FF229005F8E0A5
:100A8400FCA3E0FDA3E0FEA3E02400FFEE3410FE8F
:100A9400E43DFDE43CFC9005F81204E90209F2E4AB
:020AA400FEFF53
:010AA600222D
:101144001217D8EF64167003EE64EF600B7BFF7A1E
:1011540007794812182B80FE7FC87E001218F07B96
:10116400017A05799D900579E0FCA3E0FDA3E0FEFA
:10117400A3E0FF900603E4F0A37414F01214637F59
:10118400027E007D027C007B0180027B00EB602EEE
:1011940074B12FF58274053EF583E0FB749D2DF543
:1011A4008274053CF583E06B6002C3220DBD00012F
:1011B4000C0FBF00010EEF64144E70CB80CDED64B4
:0711C400144C7002D322C39A
:0111CB002201
:10052600C2092009047F0180027F002005047E01A4
:1005360080027E00EE5F70030207252004047F011F
:1005460080027F002005047E0180027E00EE5F604F
:1005560043E49005CAF0A3F09005CAE0FEA3E0FFCD
:10056600C3940AEE9400502074312FF58274083E2D
:10057600F583E493FF12199E9005CBE004F070D842
:100586009005CAE004F080D07FC87E001218F012F1
:100596000D4980A7E49005CCF0A3F02002047F016A
:1005A60080027F003004047E0180027E00EE5FFF41
:1005B600C39005CDE0940A9005CCE0940050047EEB
:1005C6000180027E00EE5FFF2005047E0180027E30
:1005D60000EE5F6052E49005CAF0A3F09005CAE011
:1005E600FEA3E0FFC3940AEE94005020743B2FF55F
:1005F6008274083EF583E493FF12199E9005CBE0C2
:1006060004F070D89005CAE004F080D07FC87E0060
:100616001218F0120D499005CDE004F07006900511
:10062600CCE004F00205A1E49005CCF0A3F0300282
:10063600047F0180027F003004047E0180027E0078
:10064600EE5FFF2003047E0180027E00EF5EFFC3A3
:100656009005CDE094039005CCE0940050047E0113
:1006660080027E00EE5FFF2005047E0180027E0090
:10067600EE5F7003020705E49005CAF0A3F090054B
:10068600CAE0FEA3E0FFC3940AEE9400502074452E
:100696002FF58274083EF583E493FF12199E9005A8
:1006A600CBE004F070D89005CAE004F080D07FB8A3
:1006B6007E0B1218F0120D497A0579B112090BE476
:1006C600FCFD9005791204E91211447BFF50187A5B
:1006D60007795212182BC2C3C2C47FE87E031218D0
:1006E600F0D2C3D2C480077A07797E12182B900500
:1006F600CDE004F070069005CCE004F002063490DC
:1007060005CCE07004A3E06401700B7BFF7A0779E7
:0F0716009012182BD209C204C202C20302052896
:0107250022B1
:10009600E49005C6F0900592E0B40A00400302031E
:1000A600039000AEF82828730200CC0200D50200A7
:1000B600DE0200E702015802016702018702019091
:1000C6000201F002029F7BFF7A0779A70203007BF9
:1000D600FF7A0779B60203007BFF7A0779C302022B
:1000E600E89005C57402F07F0D7E0180027E00EE69
:1000F600602874132FF582E43405F583E0FE90053D
:10010600C5E0247EF582E43405F583EEF09005C55E
:10011600E004F00FEFB41FD180D3E49005C5F09052
:1001260005C5E0FFC39464501474132FF582E434BC
:1001360005F583E4F09005C5E004F080E2120AA715
:100146007BFF50077A0879730202907A0879830256
:1001560002907BFF7A0779D312182B120526020329
:1001660003E49005C5F09005C5E0FFC39410501157
:10017600EF90084F93FF1219B69005C5E004F08082
:10018600E57BFF7A0779ED0203007FE87E03802B8B
:10019600121929EF60047F0180027F009005C6E0F6
:1001A600C3940A50047E0180027E00EE5F6011C295
:1001B600009005C6E004F07FC87E001218F080D0DB
:1001C6009005C6E0C3940A5016D2007F011216AEFF
:1001D600EF60030203037BFF7A087993020290C261
:1001E600007BFF7A0879B30202907FE87E0312183B
:1001F600F0E49005C6F0121929EF60047F01800231
:100206007F009005C6E0C3940A50047E0180027EFA
:1002160000EE5F6011C2019005C6E004F07FC87E63
:10022600001218F080D09005C6E0C3940A5012D28E
:10023600017F021216AEEF70157BFF7A0879A38054
:1002460008C2017BFF7A0879C37D101218D23001EB
:10025600047F0180027F003000047E0180027E0060
:10026600EE5F602DC200C201121943EF70167D01C8
:10027600FC7F0212124DEF60030203037BFF7A0834
:1002860079D380067BFF7A0879E37D101218D28035
:100296006C7BFF7A0779F580617D017C007F021215
:1002A60012CC1219B67FE87E03800A121929EF6074
:1002B600097FC87E001218F080F17F011216AE1277
:1002C60019B67BFF7A0779FE12182B9005C7E0FB5B
:1002D600A3E0FAA3E0F9121514EF7BFF70187A0871
:1002E600791112182BC2C3C2C47FD07E071218F030
:1002F600D2C3D2C480077A08792612182B900592A9
:0303060074FFF091
:0103090022D1
:04008E007F03DFFE0F
:01009200224B
:0F17AA00A3E0FDA3A3E4FFFEE47810FC1204D635
:0217B900AE0779
:1017BB00E4FDC286EE30E704D2858002C2851200BA
:0C17CB008ED286EE25E0FE0DEDB408E69F
:0117D70022EF
:10189400E4FED287C286FDD28612008EEE25E0FEDB
:0F18A4003087034401FEC2860DEDB408EAAF069B
:0118B3002212
:0A19F600C2847F061217B9D28422C2
:1019BE00E4FCC2847F051217B9121894AC07EC2010
:0419CE00E0F7D284E8
:0119D20022F2
:1017D800E4FEFCFDC2847F901217B9E4FF1217B92A
:1017E800E4FF1217B9E4FF1217B9121894AC0712E4
:0C17F8001894AD07D284AF04EFFEEDFFA3
:0118040022C1
:101408009005D91204E91219F6C2847F021217B99D
:101418009005D91217AA9005D9A3A3E0FEA3E4FF6B
:10142800E4FD78081217B59005D9E0FCA3E0FDA308
:10143800E0FEA3E0FF1217B99005DD74FFF5F01286
:10144800049045F06010120400FF1217B9740129C6
:0B145800F9E43AFA80E2D2840219BEE7
:101463009005FF1204E9C2847F031217B99005FFA8
:101473001217AA9005FFA3A3E0FEA3E4FFE4FDFC7B
:1014830078081204D61217B99005FFE0FCA3E0FD1B
:10149300A3E0FEA3E0FF1217B990060374FFF5F073
:1014A30012049045F06010121894EF120446740170
:0A14B30029F9E43AFA80E2D284221B
:101736009005D61204E91219F6C2847F201217B951
:101746009005D61217AA9005D6A3A3E0FEA3E4FF40
:10175600E4FDFC78081204D61217B99005D6E0FC11
:10176600A3E0FDA3E0FEA3E0FF1217B9D28402199D
:01177600BEB4
:0512470042051100004A
:1018050053BAFBE5A2543FF5A275985075AC107517
:10181500841075D7D075D6FF758E14438E01D2AC62
:0618250075AF18D2AF22DE
:03008B000215C09B
:1015C000C0E0C0F0C083C082C0D075D008C2AFE513
:1015D000AC30E02AC3900512E09464900511E094C9
:1015E000005016E475F001120490FE741325F0F516
:1015F0008274053EF583E5ADF0D20553ACFEE5AC53
:1016000030E10553ACFDC207D2AFD0D0D082D08339
:05161000D0F0D0E03233
:080003002006FDD2068F9922B0
:10177700900656EBF0A3EAF0A3E9F0900656E0FBDB
:10178700A3E0FAA3E0F91204006017900656A3E459
:1017970075F001120490A9F0FA120400FF12000379
:0317A70080D922C4
:0F19A700A3E475F001120490A9F0FA120400FFF6
:0819B6002007FDD2078FAD22CE
:10182B009005CEEBF0A3EAF0A3E9F09005CEE0FB38
:10183B00A3E0FAA3E0F912040060089005CE121998
:04184B00A780E82268
:0F198F00A3E475F001120490A9F0FA120400FF0E
:09199E002008FDEFD208F58522B6
:10184F00900659EBF0A3EAF0A3E9F0900659E0FBFC
:10185F00A3E0FAA3E0F912040060089006591219E8
:04186F008F80E8225C
:0B18B4009005DCEBF0A3EAF0A3E9F0E4
:1018BF00E4FEEEC39D500B9005DCE0FB12198F0E7A
:0218CF0080F0A7
:0118D10022F4
:0B18D2009005CAEBF0A3EAF0A3E9F0D8
:1018DD00E4FEEEC39D500B9005CAE0FB1219A70E56
:0218ED0080F089
:0118EF0022D6
:1018F000EF1FAA0670011E4A6013E4FCFDC3ED94BD
:0D19000044EC940250EA0DBD00010C80F093
:01190D0022B7
:1010390002190EE493A3F8E493A34003F68001F2A6
:1010490008DFF48029E493A3F85407240CC8C333B8
:10105900C4540F4420C8834004F456800146F6DF87
:10106900E4800B01020408102040809011CCE47E3A
:10107900019360BCA3FF543F30E509541FFEE4937C
:10108900A360010ECF54C025E060A840B8E493A343
:10109900FAE493A3F8E493A3C8C582C8CAC583CA6E
:1010A900F0A3C8C582C8CAC583CADFE9DEE780BE26
:01124C0000A1
:10030A00E709F608DFFA8046E709F208DFFA803ED5
:10031A0088828C83E709F0A3DFFA8032E309F608C2
:10032A00DFFA8078E309F208DFFA807088828C832A
:10033A00E309F0A3DFFA806489828A83E0A3F608DE
:10034A00DFFA805889828A83E0A3F208DFFA804CB8
:10035A0080D280FA80C680D4806980F2803380108F
:10036A0080A680EA809A80A880DA80E280CA8033F8
:10037A0089828A83ECFAE493A3C8C582C8CCC58370
:10038A00CCF0A3C8C582C8CCC583CCDFE9DEE78040
:10039A000D89828A83E493A3F608DFF9ECFAA9F0BF
:1003AA00EDFB2289828A83ECFAE0A3C8C582C8CC15
:1003BA00C583CCF0A3C8C582C8CCC583CCDFEADE2E
:1003CA00E880DB89828A83E493A3F208DFF980CC90
:1003DA0088F0EF60010E4E60C388F0ED2402B40489
:1003EA000050B9F582EB2402B4040050AF23234530
:0603FA00822390035A73F8
:10040000BB010689828A83E0225002E722BBFE02FA
:09041000E32289828A83E493222D
:10041900BB010CE58229F582E5833AF583E0225098
:1004290006E92582F8E622BBFE06E92582F8E222E2
:0D043900E58229F582E5833AF583E49322FC
:10044600BB010689828A83F0225002F722BBFE0195
:02045600F3228F
:10045800F8BB010DE58229F582E5833AF583E8F0DA
:10046800225006E92582C8F622BBFE05E92582C886
:02047800F2226E
:10047A00C5F0F8A3E028F0C5F0F8E582158270020D
:06048A001583E038F022AA
:10049000A3F8E0C5F025F0F0E5821582700215831F
:0604A000E0C838F0E8227C
:1004A600BB010A89828A83F0E5F0A3F0225006F7A1
:0F04B60009A7F01922BBFE06F3E5F009F319229E
:1004C500EB9FF5F0EA9E42F0E99D42F0E89C45F08D
:0104D5002204
:1004D600E8600FECC313FCED13FDEE13FEEF13FF04
:0304E600D8F12228
:0C04E900ECF0A3EDF0A3EEF0A3EFF02286
:1004F500A8828583F0D083D08212050C12050C12D8
:10050500050C12050CE473E493A3C583C5F0C583FC
:10051500C8C582C8F0A3C583C5F0C583C8C582C850
:0105250022B3
:00000001FF
