:030000000204DC1B
:0C04DC00787FE4F6D8FD7581200205232E
:100026004944204552524F52210053746172742044
:100036005265616420577269746520546573742132
:100046000A004572617365210A0057726974652159
:100056000A0052656164210A005375636365737310
:100066002100AAAAAA96690003200122AAAAAA9692
:10007600690003200221AAAAAA9669000330013268
:0300860000000077
:1006B20060280000AAAAAA966900009F0000000014
:1006C20097000080840000900000000000000000FD
:1006D2009C000081850000900000414542053700E2
:0606E20000420539000092
:100096001207AA120863E490053BF0A3F090053B13
:1000A600E0FEA3E0FFC3940AEE9400501A74682F92
:1000B600F582740012082E90053CE004F070DE9084
:1000C600053BE004F080D612084CE4900539F0A315
:1000D600F090053BF0A3F090053BE0FEA3E0FFC3E4
:1000E600940AEE9400501A74722FF5827400120866
:1000F6002E90053CE004F070DE90053BE004F080B5
:10010600D612084CE4900539F0A3F090053BF0A315
:10011600F090053BE0FEA3E0FFC3940AEE94005086
:100126001A747C2FF582740012082E90053CE004A8
:10013600F070DE90053BE004F080D612083D120810
:100146003D12077DEF64167003EE64EF600B7BFFD4
:100156007A00792612071C80FE7BFF7A007930121E
:10016600071C7BFF7A00794812071C7F647E001209
:1001760007CD7F007E007D007C001206717BFF7A32
:1001860000795012071C7F2C7E011207CD7B017A65
:10019600007928900539E0FFA3E0900546CFF0A34B
:1001A600EFF07F007E007D007C001205687BFF7A01
:1001B60000795812071C7F2C7E011207CD7B017A2D
:1001C600007928900539E0FFA3E0900546CFF0A31B
:1001D600EFF07F007E007D007C001205C3E49005F1
:1001E6003DF0A3F0900539E0FEA3E0FF90053DE069
:1001F600FCA3E0FDC39FEC9E501F74282DF582746E
:10020600003CF583E0FF12085B90053EE004F070C9
:10021600D390053DE004F080CB7BFF7A00795F1236
:04022600071C80FE33
:1007AA0053BAFBE5A2543FF5A275985075841075AB
:1007BA00D7D075D6FF758E14438E01D2AC75AF10A3
:0307CA00D2AF2289
:0300930002061D45
:0D061D00C0E0C0F0C083C082C0D075D0081E
:10062A00C2AFAF85E58430E027C390053AE0940F66
:10063A00900539E094055015E475F0011204A7FC01
:10064A00742825F0F58274003CF583EFF05384FE9C
:0C065A00E58430E1055384FDC201D2AFFD
:0B066600D0D0D082D083D0F0D0E032A2
:10022A0090002DE0600302034DA3E0640460030222
:02023A00031FA0
:10023C009005497407F0E4A3F0784B7C057D017BB5
:10024C00FF7A007986FE7F0312045690054AE0FF80
:10025C00C3940450047E0180027E00EE6071900510
:10026C0049E02428F582E43400F583E0FE740D2F78
:10027C00F582E43400F583E0FFEEB5070690054BFC
:10028C00E004F090054AE0241DF582E43400F58387
:10029C00E0B5060690054CE004F0900549E02428F2
:1002AC00F582E43400F583E0FF90054AE02424F560
:1002BC0082E43400F583E0FEEFB5060690054DE0D0
:1002CC0004F0900549E004F0A3E004F0020257901A
:1002DC00054BE0B4040FE4900548F0900548E004A9
:1002EC00F0E0B40BF690054CE0B4040FE490054834
:1002FC00F0900548E004F0E0B40BF690054DE06496
:10030C0004706F900548F0900548E004F0E0B40BE1
:03031C00F6805F09
:10031F0090002EE0FFB40811E4900548F0900548D6
:10032F00E004F0E0B40FF68046EF640C70419005E6
:10033F0048F0900548E004F0E0B413F680319000E7
:10034F002DE0B4052AE4900548F0900548E0FFC37E
:10035F00942C74809481501774282FF582E4340004
:10036F00F583E0FF12085B900548E004F080DBE4C2
:06037F00900537F0A3F029
:010385002255
:1007EB00EF75F00A84AEF0AD06EF75F00A8475F084
:0C07FB000A84AEF0AF06EFC4540F4DFFAF
:0108070022CE
:06082E003EF583E493FF98
:090834002001FDEFD201F585223F
:1006E90090054EEBF0A3EAF0A3E9F090054EE0FB8C
:1006F900A3E0FAA3E0F912047C601790054EA3E485
:1007090075F0011204A7A9F0FA12047CFF1208344B
:0307190080D92262
:0300230002081DB3
:10081D00C2AF309802C298309904C299C200D2AFCB
:01082D003298
:08085B002000FDD2008F99225C
:10071C0090053FEBF0A3EAF0A3E9F090053FE0FB76
:10072C00A3E0FAA3E0F912047C601790053FA3E460
:10073C0075F0011204A7A9F0FA12047CFF12085BF1
:03074C0080D9222F
:070863004393F04394F022DF
:0E083D0000007F557E0C7D9BDDFEDEFCDFFAA9
:01084B00228A
:1007CD00EF1FAA0670011E4A6013E4FCFDC3ED94F1
:0D07DD0044EC940250EA0DBD00010C80F0C8
:0107EA0022EC
:0E084C0000007F117ED07D1BDDFEDEFCDFFA9A
:01085A00227B
:04086A007F03DFFE2B
:01086E002267
:0F074F00A3E0FDA3A3E4FFFEE47810FC1204BDB9
:02075E00AE07E4
:10076000E4FDC286EE30E704D2858002C28512081D
:0C0770006AD286EE25E0FE0DEDB408E62E
:01077C00225A
:10000300E4FED287C286FDD28612086AEE25E0FEA0
:0F0013003087034401FEC2860DEDB408EAAF0644
:0100220022BB
:0A008900C2847F0612075ED28422B3
:10080800E4FCC2847F0512075E120003AC07EC20EB
:04081800E0F7D284AF
:01081C0022B9
:10077D00E4FEFCFDC2847F9012075EE4FF12075E6B
:10078D00E4FF12075EE4FF12075E120003AC0712CE
:0C079D000003AD07D284AF04EFFEEDFFB7
:0107A900222D
:100568009005421204D0120089C2847F0212075EED
:1005780090054212074F900542A3A3E0FEA3E4FFB3
:10058800E4FD780812075A900542E0FCA3E0FDA3B9
:10059800E0FEA3E0FF12075E90054674FFF5F01237
:1005A80004A745F0601012047CFF12075E7401294D
:0B05B800F9E43AFA80E2D2840208085D
:1005C3009005421204D0C2847F0312075E90054255
:1005D30012074F900542A3A3E0FEA3E4FFE4FDFC52
:1005E30078081204BD12075E900542E0FCA3E0FD0B
:1005F300A3E0FEA3E0FF12075E90054674FFF5F04B
:100603001204A745F06010120003EF120495740161
:0A06130029F9E43AFA80E2D28422C9
:1006710090053F1204D0120089C2847F2012075EC8
:1006810090053F12074F90053FA3A3E0FEA3E4FFAF
:10069100E4FDFC78081204BD12075E90053FE0FC02
:1006A100A3E0FDA3E0FEA3E0FF12075ED2840208EF
:0106B1000840
:1004E800020096E493A3F8E493A34003F68001F294
:1004F80008DFF48029E493A3F85407240CC8C33315
:10050800C4540F4420C8834004F456800146F6DFE3
:10051800E4800B01020408102040809006B2E47EBB
:10052800019360BCA3FF543F30E509541FFEE493D8
:10053800A360010ECF54C025E060A840B8E493A39F
:10054800FAE493A3F8E493A3C8C582C8CAC583CACA
:10055800F0A3C8C582C8CAC583CADFE9DEE780BE82
:0106E8000011
:10038600E709F608DFFA8046E709F208DFFA803E59
:1003960088828C83E709F0A3DFFA8032E309F60846
:1003A600DFFA8078E309F208DFFA807088828C83AE
:1003B600E309F0A3DFFA806489828A83E0A3F60862
:1003C600DFFA805889828A83E0A3F208DFFA804C3C
:1003D60080D280FA80C680D4806980F28033801013
:1003E60080A680EA809A80A880DA80E280CA80337C
:1003F60089828A83ECFAE493A3C8C582C8CCC583F4
:10040600CCF0A3C8C582C8CCC583CCDFE9DEE780C3
:100416000D89828A83E493A3F608DFF9ECFAA9F042
:10042600EDFB2289828A83ECFAE0A3C8C582C8CC98
:10043600C583CCF0A3C8C582C8CCC583CCDFEADEB1
:10044600E880DB89828A83E493A3F208DFF980CC13
:1004560088F0EF60010E4E60C388F0ED2402B4040C
:100466000050B9F582EB2402B4040050AF232345B3
:0604760082239003D673FF
:10047C00BB010689828A83E0225002E722BBFE027E
:09048C00E32289828A83E49322B1
:10049500BB010689828A83F0225002F722BBFE0146
:0204A500F32240
:1004A700A3F8E0C5F025F0F0E58215827002158308
:0604B700E0C838F0E82265
:1004BD00E8600FECC313FCED13FDEE13FEEF13FF1D
:0304CD00D8F12241
:0C04D000ECF0A3EDF0A3EEF0A3EFF0229F
:00000001FF
