:03000000020BEF01
:0C0BEF00787FE4F6D8FD758121020C36F9
:10073A00435320506173736564210A004353204573
:10074A0072726F72210A006E6F74206C6F63616C33
:10075A00686F7374206E756D626572210A00486550
:10076A00617274207061636B6574210A005265615D
:10077A006C6F6164696E67210A004F70656E205460
:10078A00686520446F6F72210A00536176652049BB
:10079A0064204E756D626572205375636365737369
:1007AA00210A004964204E756D62657220616C727F
:1007BA0065616479206578697374210A00506C65F3
:1007CA00617365205363616E207468652049442013
:1007DA0043617274210A00506C6561736520496E29
:1007EA0070757420726967687420636F6D6D616ECD
:1007FA0064210A004944204552524F52210049447B
:10080A00204E756D6265722056657269666963610C
:10081A0074696F6E2050617373214F70656E205436
:10082A00686520446F6F72210A004944204E756D35
:10083A00626572204572726F72210A004964204310
:10084A0061727420526561642053756363657373C2
:10085A00210A00AAAAAA96690003200122AAAAAA22
:10086A0096690003200221AAAAAA96690003300108
:10087A003255AA00010371000100010100010000C4
:10088A001600010002000310011003F0010000002D
:10089A00000000000000000000000000000000004E
:0508AA00000000000049
:10002600420004000042000200005405B300000034
:1000360000000000000000000000000000000000BA
:100046000054000B0000000000000000000000004B
:10005600000000000000000042052E00004A0531A5
:1000660000000000037100010001410530FFC107D7
:0D007600C105C100C104C106420000000028
:10116D001210F11211551211841200961211E31280
:07117D0005BB120A0480F219
:1010F10053BAFBE5A2543FF5A275985075AC107533
:10110100841075D7D075D6FF758E14438E01D2AC7D
:0611110075AF18D2AF22F9
:10118400538E7F5389F0E4F58A758C70D2A9D28C82
:011194002238
:03000B00020D766D
:100D7600C0E0C0F0C083C082C0D075D000C000C043
:0D0D860001C002C003C004C005C006C007C4
:100D9300900001E004F07006900000E004F0900081
:100DA30000E07004A3E064FA7015900000F0A3F073
:0F0DB300C2C3C2C47FF47E01121137D2C3D2C4AF
:100DC200D007D006D005D004D003D002D001D00085
:0B0DD200D0D0D082D083D0F0D0E0322F
:03008B00020E92D0
:100E9200C0E0C0F0C083C082C0D075D008C2AFE548
:100EA200AC30E02AC390052FE0946490052EE094C4
:100EB200005016E475F0011203A8FE743B25F0F50C
:100EC2008274053EF583E5ADF0D20753ACFEE5AC86
:100ED20030E10553ACFDC202D2AFD0D0D082D08374
:050EE200D0F0D0E03269
:03009300020EE773
:0D0EE700C0E0C0F0C083C082C0D075D0084C
:100EF400C2AFE58430E029AF85C3900005E0940FCC
:100F0400900004E094055015E475F0011203A8FC68
:100F1400741F25F0F58274003CF583EFF05384FED2
:0C0F2400E58430E1055384FDC203D2AF28
:0B0F3000D0D0D082D083D0F0D0E032CF
:100AFA00900024E0FD75F00A8475F00AA4FFED75F4
:100B0A00F00A84EF25F0FFEFFCA3E0FB75F00A84FE
:100B1A0075F00AA4FFAEF0EB75F00A847A00EF25AF
:100B2A00F0FFEA3ECF2400CF3CFE900002F0A3EF94
:100B3A00F064044E700E900028E0B48007A3E0B47D
:100B4A008402C205900002E0FEA3E0FF64044E7036
:100B5A000E900028E0B48107A3E0B48502C200EF3A
:100B6A0064044E700E900028E0B44107A3E0B44537
:100B7A0002C204900002E07004A3E064087002D28A
:100B8A0005900002E0FEA3E0FF640C4E7002D20062
:100B9A00EF64087003EE64057043D2047F02FE7DA1
:100BAA0088FCC3ED94ABEC940050047B0180027B7B
:100BBA0000EB6029741F2DF58274003CF583E0FB7D
:100BCA0074B32FF58274053EF583EBF00DBD000179
:100BDA000C0DBD00010C0FBF00010E80C5E4900092
:040BEA0004F0A3F080
:010BEE0022E4
:1005BB00E490064AF0FC90053BE0B45509A3E0B487
:1005CB00AA04D2088002C20820080302070790057C
:1005DB003EE0FE75F00A8475F00AA4FDEE75F00A94
:1005EB0084ED25F090000AF09006497404F0900613
:1005FB0049E0FF243BF582E43405F583E0FE7431DA
:10060B002FF582E43405F583E0B5060690064AE043
:10061B0004F0900649E004F0E0B40AD290064AE0F8
:10062B00640660030206FE740DF090000AE0F924E4
:10063B000DFFE433FE90064AE0FDC39FEE6480F8A5
:10064B007480985015743B2DF582E43405F583E0E6
:10065B002CFC90064AE004F080D0744829F582E423
:10066B003405F583E06C60030206F67BFF7A0779AD
:10067B003A12106390000AE0FF2449F582E4340536
:10068B00F583E06416705C744A2FF582E43405F54B
:10069B0083E0704F90064AF090064AE0FFC3940641
:1006AB00505AEF25E0248BF582E43408F583E4936C
:1006BB00FF900546E0FEEFB5062190064AE0FF25C8
:1006CB00E0248CF582E43408F583E493FE9005472F
:1006DB00E0FDEEB50505900530EFF090064AE0041D
:1006EB00F080B590053074FFF080117BFF7A0779AD
:1006FB004680067BFF7A077951121063C207E4909C
:10070B00052EF0A3F0A3E064036023E4900649F008
:10071B00900649E0FFC394645014743B2FF582E4B8
:0E072B003405F583E4F0900649E004F080E226
:01073900229D
:100A0400900530E014602214602814603C147003D4
:100A1400020ABC147003020ACA24056003020AEA2B
:100A24007BFF7A077968020AF07BFF7A07797702FD
:100A34000AF07BFF7A077984121063C2C3C2C4121E
:100A440011D4D2C3D2C4020AF39006497402F07FCF
:100A54000D7E0180027E00EE6028743B2FF582E457
:100A64003405F583E0FE900649E0240BF582E43476
:100A740000F583EEF0900649E004F00FEFB41FD1C7
:100A840080D3E4900649F0900649E0FFC394645093
:100A940014743B2FF582E43405F583E4F0900649A1
:100AA400E004F080E21208AF7BFF50067A077994E5
:100AB400803A7A0779AD80347BFF7A0779C71210C0
:100AC400631200968029E4900649F0900649E0FFFD
:100AD400C394105011EF90087B93FF1211FC900601
:100AE40049E004F080E57BFF7A0779E11210639016
:050AF400053074FFF065
:010AF90022DA
:100C7B001210C4EF64167003EE64EF600B7BFF7A07
:100C8B000779FE12106380FE7F2C7E011211377BD9
:100C9B00017A05799F900006E0FCA3E0FDA3E0FE3E
:100CAB00A3E0FF900683E4F0A37414F0120E387FD8
:100CBB00027E007D027C007B0180027B00EB602EBC
:100CCB0074B32FF58274053EF583E0FB749F2DF50D
:100CDB008274053CF583E06B6002C3220DBD0001FD
:100CEB000C0FBF00010EEF64144E70CB80CDED6482
:070CFB00144C7002D322C368
:010D020022CE
:1008AF00784A7C067D017BFF7A0879977E007F026C
:1008BF001203417B017A06794A900683E4F0A37410
:1008CF0002F07F007E007D007C00120E3890064AF9
:1008DF00E0FD75F00A8475F00AA4FFED75F00A8447
:1008EF00EF25F0FFEFFCA3E0FB75F00A8475F00A2B
:1008FF00A4FFAEF0EB75F00A847A00EF25F0FFEA63
:10090F003ECF2400CF3CFE900654F0A3EFF0F470DE
:10091F0002EEF4601BE0C454F0FEE42400FFEE345A
:10092F0010FEE433FDE433FC9006501203E2801115
:10093F00E4900654F0A3F09006501203EE0000105E
:10094F00007A00790B12041FE4FCFD90064C120391
:10095F00E2E4FFFEFDFC90064CE0F8A3E0F9A3E013
:10096F00FAA3E0FBC31203BE6003020A029006550E
:10097F00E004F07006900654E004F0900654E0FC9A
:10098F00A3E0FDEC90064AF0A3EDF07F007E007D22
:10099F00007C00120F7F7B017A06794A90065DE496
:1009AF00F0A37402F07F007E007D007C00120DDD4D
:1009BF0090064AE090000BF090064BE090000CF090
:1009CF00900650E0FCA3E0FDA3E0FEA3E0FF120FB2
:1009DF007F7B017A00790B900650E0FCA3E0FDA32A
:1009EF00E0FEA3E0FF90065DE4F0A37414F0120D97
:0409FF00DDD322C35F
:010A030022D0
:0A041F007B017F007E107D007C0051
:0F042900900656EBF0A3EAF0A3E9F0A31203E26A
:10043800785D7C067D017BFF7A0879997E007F02D2
:1004480012034190065F7402F078607C067D017BA0
:10045800FF7A08799B7E007F14120341900659E0C9
:10046800FCA3E0FDA3E0FEA3E0FF9006781203E200
:100478007B017A06795D900683E4F0A37402F07F2D
:10048800007E007D007C00120E3890065DE0F97554
:10049800F00A8475F00AA4FFE975F00A84EF25F0E4
:1004A800FFEFFCA3E0F975F00A8475F00AA4FFAE2B
:1004B800F0E975F00A847A00EF25F0FFEA3ECF24D0
:1004C80000CF3CFEEFF47002EEF4601BEFC454F072
:1004D800FEE42400FFEE3410FEE433FDE433FC9028
:1004E80006741203E2800DE4FEFF9006741203EE18
:1004F80000001000900657E475F00212039290066F
:1005080074E0FCA3E0FDA3E0FEA3E0FFA3E0F8A3F2
:10051800E0F9A3E0FAA3E0FBC31203BE400302051F
:10052800B77B017A067960900678E0FCA3E0FDA32A
:10053800E0FEA3E0FF900683E4F0A37414F0120E2B
:1005480038900656E0FBA3E0FAA3E0F9120367FF30
:1005580090065FE0FE2460F582E43406F583E0B59A
:100568000718EEC39414501290065FE004F090064A
:1005780057E475F00112039280C790065FE0B41447
:100588000B900678A3A3E0FEA3E0FF22900678E094
:10059800FCA3E0FDA3E0FEA3E02400FFEE3410FE80
:1005A800E43DFDE43CFC9006781203E2020506E413
:0205B800FEFF44
:0105BA00221E
:060F3B009005C71203E25D
:100F4100E4FF9005CBE0FEEFC39E501074CC2FF56B
:100F510082E43405F58374FFF00F80E69005C7E065
:100F6100FCA3E0FDA3E0FEA3E0FFA3E0FB90065D90
:0E0F7100E4F0A3EBF07B017A0579CC020DDDF4
:10009600C2082008047F0180027F002007047E0139
:1000A60080027E00EE5F70030202702005047F016D
:1000B60080027F002007047E0180027E00EE5F60E2
:1000C60039E490064AF0A3F090064AE0FEA3E0FF6A
:1000D600C3940AEE9400501A745D2FF582740812C8
:1000E60011B690064BE004F070DE90064AE004F08C
:1000F60080D61211E3120AFA80B1E490064CF0A3FE
:10010600F02000047F0180027F003005047E01801C
:10011600027E00EE5FFFC390064DE0940A90064C07
:10012600E0940050047E0180027E00EE5FFF20070F
:10013600047E0180027E00EE5F6048E490064AF08D
:10014600A3F090064AE0FEA3E0FFC3940AEE9400F3
:10015600501A74672FF58274081211B690064BE098
:1001660004F070DE90064AE004F080D61211E31225
:100176000AFA90064DE004F0708790064CE004F011
:10018600020107E490064CF0A3F03000047F0180E2
:10019600027F003005047E0180027E00EE5FFF20B4
:1001A60004047E0180027E00EF5EFFC390064DE0F0
:1001B600940390064CE0940050047E0180027E0079
:1001C600EE5FFF2007047E0180027E00EE5F607A0C
:1001D600E490064AF0A3F090064AE0FEA3E0FFC3CF
:1001E600940AEE9400501A74712FF5827408121155
:1001F600B690064BE004F070DE90064AE004F0800C
:10020600D61211D4120AFA7A0579B312041FE4FC45
:10021600FD9000061203E2120C7B7BFF50147A0855
:100226007908121063C2C3C2C41211D4D2C3D2C495
:1002360080077A08793412106390064DE004F07056
:100246000690064CE004F002019090064CE0700423
:10025600A3E06401700B7BFF7A087946121063D223
:0A02660008C205C200C2040200989D
:01027000226B
:0611B6003EF583E493FF07
:0911BC002003FDEFD203F58522AA
:100FFD00900685EBF0A3EAF0A3E9F0900685E0FBFF
:10100D00A3E0FAA3E0F91203676017900685A3E445
:10101D0075F0011203A8A9F0FA120367FF1211BCB3
:03102D0080D92245
:0300230002119532
:10119500C2AF309802C298309904C299C201D2AF49
:0111A5003217
:080003002001FDD2018F9922BA
:10103000900688EBF0A3EAF0A3E9F0900688E0FBC5
:10104000A3E0FAA3E0F91203676017900688A3E40F
:1010500075F0011203A8A9F0FA120367FF1200034A
:0310600080D92212
:0811FC002002FDD2028FAD229A
:1010630090064EEBF0A3EAF0A3E9F090064EE0FB06
:10107300A3E0FAA3E0F9120367601790064EA3E416
:1010830075F0011203A8A9F0FA120367FF1211FC0D
:0310930080D922DF
:10115500E4F5B4F5B34393F04394F0759630759583
:08116500C07592207591102263
:100D030020A76D30936AD2A520A760EF30E004D20C
:100D1300A0800AA2A0E43354FE24FF92A0EF30E1A6
:100D230008A2A1E43344028006A2A1E43354FE24C2
:100D3300FF92A1EF30E208A2A2E43344048006A2AA
:100D4300A2E43354FE24FF92A2EF30E308A2A3E40B
:100D53003344088006A2A3E43354FE24FF92A3D2B3
:100D6300A43093FDC2A5C2A47F0022C2A57F0122A5
:030D73007F0122DB
:100FC000E490068BF030A63230A004E04401F0300B
:100FD000A10790068BE04402F030A20790068BE058
:100FE0004404F030A30790068BE04408F0D293123B
:0C0FF00011A6C29390068BE0FF227F0048
:010FFC0022D2
:0F11A600E4FFE4FE000EEEB4FFFA0FEFB4FFF328
:0111B5002217
:0E11C50000007F557E0C7D9BDDFEDEFCDFFA18
:0111D30022F9
:0E11D40000007FA97E187D3BDDFEDEFCDFFA09
:0111E20022EA
:10113700EF1FAA0670011E4A6013E4FCFDC3ED947D
:0D11470044EC940250EA0DBD00010C80F054
:011154002278
:0E11E30000007F117ED07D1BDDFEDEFCDFFAFA
:0111F10022DB
:040084007F03DFFE19
:010088002255
:0F109600A3E0FDA3A3E4FFFEE47810FC1203CF58
:0210A500AE0794
:1010A700E4FDC286EE30E704D2858002C2851200D5
:0C10B70084D286EE25E0FE0DEDB408E6C4
:0110C300220A
:10111700E4FED287C286FDD286120084EE25E0FE69
:0F1127003087034401FEC2860DEDB408EAAF061F
:011136002296
:0A11F200C2847F061210A5D28422E9
:10000E00E4FCC2847F051210A5121117AC07EC2078
:04001E00E0F7D284B1
:0100220022BB
:1010C400E4FEFCFDC2847F901210A5E4FF1210A57B
:1010D400E4FF1210A5E4FF1210A5121117AC0712B9
:0C10E4001117AD07D284AF04EFFEEDFF42
:0110F00022DD
:100DDD009006591203E21211F2C2847F021210A57D
:100DED00900659121096900659A3A3E0FEA3E4FFB6
:100DFD00E4FD78081210A1900659E0FCA3E0FDA3D4
:100E0D00E0FEA3E0FF1210A590065D74FFF5F01251
:100E1D0003A845F06010120367FF1210A574012995
:0B0E2D00F9E43AFA80E2D28402000EE1
:100E380090067F1203E2C2847F031210A590067FFA
:100E480012109690067FA3A3E0FEA3E4FFE4FDFC46
:100E580078081203CF1210A590067FE0FCA3E0FDEE
:100E6800A3E0FEA3E0FF1210A590068374FFF5F03F
:100E78001203A845F06010121117EF1203807401D5
:0A0E880029F9E43AFA80E2D284224C
:100F7F009006561203E21211F2C2847F201210A5BE
:100F8F00900656121096900656A3A3E0FEA3E4FF18
:100F9F00E4FDFC78081203CF1210A5900656E0FC72
:100FAF00A3E0FDA3E0FEA3E0FF1210A5D284020090
:010FBF000E23
:100BFB0002116DE493A3F8E493A34003F68001F292
:100C0B0008DFF48029E493A3F85407240CC8C333FA
:100C1B00C4540F4420C8834004F456800146F6DFC9
:100C2B00E4800B0102040810204080900026E47E33
:100C3B00019360BCA3FF543F30E509541FFEE493BE
:100C4B00A360010ECF54C025E060A840B8E493A385
:100C5B00FAE493A3F8E493A3C8C582C8CAC583CAB0
:100C6B00F0A3C8C582C8CAC583CADFE9DEE780BE68
:01008300007C
:10027100E709F608DFFA8046E709F208DFFA803E6F
:1002810088828C83E709F0A3DFFA8032E309F6085C
:10029100DFFA8078E309F208DFFA807088828C83C4
:1002A100E309F0A3DFFA806489828A83E0A3F60878
:1002B100DFFA805889828A83E0A3F208DFFA804C52
:1002C10080D280FA80C680D4806980F28033801029
:1002D10080A680EA809A80A880DA80E280CA803392
:1002E10089828A83ECFAE493A3C8C582C8CCC5830A
:1002F100CCF0A3C8C582C8CCC583CCDFE9DEE780DA
:100301000D89828A83E493A3F608DFF9ECFAA9F058
:10031100EDFB2289828A83ECFAE0A3C8C582C8CCAE
:10032100C583CCF0A3C8C582C8CCC583CCDFEADEC7
:10033100E880DB89828A83E493A3F208DFF980CC29
:1003410088F0EF60010E4E60C388F0ED2402B40422
:100351000050B9F582EB2402B4040050AF232345C9
:0603610082239002C1732B
:10036700BB010689828A83E0225002E722BBFE0294
:09037700E32289828A83E49322C7
:10038000BB010689828A83F0225002F722BBFE015C
:02039000F32256
:10039200C5F0F8A3E028F0C5F0F8E58215827002F6
:0603A2001583E038F02293
:1003A800A3F8E0C5F025F0F0E58215827002158308
:0603B800E0C838F0E82265
:1003BE00EB9FF5F0EA9E42F0E99D42F0E89C45F095
:0103CE00220C
:1003CF00E8600FECC313FCED13FDEE13FEEF13FF0C
:0303DF00D8F12230
:0C03E200ECF0A3EDF0A3EEF0A3EFF0228E
:1003EE00A8828583F0D083D08212040512040512F0
:1003FE000405120405E473E493A3C583C5F0C58315
:10040E00C8C582C8F0A3C583C5F0C583C8C582C858
:01041E0022BB
:00000001FF
