:0300000002076490
:0C076400787FE4F6D8FD7581210207AB18
:10021500435320506173736564210A00435320459D
:1002250072726F72210A006E6F74206C6F63616C5D
:10023500686F7374206E756D626572210A0048657A
:10024500617274207061636B6574210A0052656187
:100255006C6F6164696E67210A004F70656E20548A
:10026500686520446F6F72210A00536176652049E5
:1002750064204E756D626572205375636365737393
:10028500210A00506C65617365205363616E2074AB
:1002950068652049442043617274210A004944205D
:1002A5004E756D6265722056657269666963617423
:1002B500696F6E2050617373214F70656E205468AD
:1002C5006520446F6F72210A004944204E756D62A6
:1002D5006572204572726F72210A00506C656173F8
:1002E5006520496E70757420726967687420636F44
:1002F5006D6D616E64210A004944204552524F528A
:100305002100496420436172742052656164205361
:10031500756363657373210A00AAAAAA9669000327
:10032500200122AAAAAA96690003200221AAAAAA44
:100335009669000330013255AA00010371000100DE
:100345000101000100001600010002000310011068
:0303550003F001B1
:100A5E004200020000420000000042052C0000424D
:100A6E00052E0000540009000100000000000000E7
:100A7E0000000000000000000000004205300000F1
:100A8E004A053300000000037100010001410532E8
:0B0A9E00FFC107C105C100C104C10673
:100C8D00120C1C120C603007FD120CEF12009612A4
:040C9D00048680F257
:100C1C0053BAFBE5A2543FF5A275985075AC10750C
:100C2C00841075D7D075D6FF758E14438E01D2AC57
:060C3C0075AF18D2AF22D3
:03008B000209B5B2
:1009B500C0E0C0F0C083C082C0D075D008C2AFE52A
:1009C500AC30E02AC3900531E09464900530E094A2
:1009D500005016E475F001120926FE743D25F0F568
:1009E5008274053EF583E5ADF0D20753ACFEE5AC68
:1009F50030E10553ACFDC202D2AFD0D0D082D08356
:050A0500D0F0D0E0324A
:03009300020A0A54
:0D0A0A00C0E0C0F0C083C082C0D075D0082D
:100A1700C2AFE58430E029AF85C3900003E0940FAF
:100A2700900002E094055015E475F001120926FCC8
:100A3700741D25F0F58274003CF583EFF05384FEB6
:0C0A4700E58430E1055384FDC203D2AF0A
:0B0A5300D0D0D082D083D0F0D0E032B1
:1005AA00900022E0FD75F00A8475F00AA4FFED754B
:1005BA00F00A84EF25F0FFEFFCA3E0FB75F00A8454
:1005CA0075F00AA4FFAEF0EB75F00A847A00EF2505
:1005DA00F0FFEA3ECF2400CF3CFE900000F0A3EFEC
:1005EA00F064044E700E900026E0B48007A3E0B4D5
:1005FA008402C205900000E0FEA3E0FF64044E708E
:10060A000E900026E0B48107A3E0B48502C200EF91
:10061A0064044E700E900026E0B44107A3E0B4458E
:10062A0002C204900000E07004A3E064087002D2E1
:10063A0005900000E0FEA3E0FF640C4E7002D200B9
:10064A00EF64087003EE64057042D204FFFE7D88F1
:10065A00FCC3ED94ABEC940050047B0180027B0058
:10066A00EB6029741D2DF58274003CF583E0FB7460
:10067A00B52FF58274053EF583EBF00DBD00010C34
:10068A000DBD00010C0FBF00010E80C5E4900002F1
:03069A00F0A3F0DA
:01069D00223A
:10009600E49005C8F0FC90053DE0B45509A3E0B432
:1000A600AA04D2088002C2082008030201E29005D1
:1000B60040E0FE75F00A8475F00AA4FDEE75F00ABC
:1000C60084ED25F0900008F09005C77404F09005C3
:1000D600C7E0FF243DF582E43405F583E0FE743382
:1000E6002FF582E43405F583E0B506069005C8E0F1
:1000F60004F09005C7E004F0E0B40AD29005C8E029
:10010600640660030201D9740DF0900008E0F9243A
:100116000DFFE433FE9005C8E0FDC39FEE6480F852
:100126007480985015743D2DF582E43405F583E00E
:100136002CFC9005C8E004F080D0744A29F582E4CE
:100146003405F583E06C60030201D17BFF7A027906
:1001560015120B8E900008E0FF244BF582E434055F
:10016600F583E06416705C744C2FF582E43405F573
:1001760083E0704F9005C8F09005C8E0FFC3940671
:10018600505AEF25E0244CF582E43403F583E493DA
:10019600FF900548E0FEEFB506219005C8E0FF2573
:1001A600E0244DF582E43403F583E493FE9005499B
:1001B600E0FDEEB50505900532EFF09005C8E004C8
:1001C600F080B590053274FFF080117BFF7A0279DA
:1001D6002180067BFF7A02792C120B8EC207E490EF
:1001E6000530F0A3F0A3E064036023E49005C7F0B4
:1001F6009005C7E0FFC394645014743D2FF582E464
:0E0206003405F583E4F09005C7E004F080E2D3
:0102140022C7
:10048600900532E014602214602814602E14700364
:1004960002054D14700302057A2405600302059ACD
:1004A6007BFF7A0279430205A07BFF7A027952022A
:1004B60005A07BFF7A02795F0205649005C7740286
:1004C600F07F0D7E0180027E00EE6028743D2FF5E0
:1004D60082E43405F583E0FE9005C7E02409F58241
:1004E600E43400F583EEF09005C7E004F00FEFB4B6
:1004F6001FD180D3E49005C7F09005C7E0FFC394F1
:10050600645014743D2FF582E43405F583E4F090CD
:1005160005C7E004F080E27F007E007D007C0012CB
:100526000AAA7B017A05792C9005CFE4F0A3740220
:10053600F07F007E007D007C0012095B12069E7B28
:10054600FF7A02796F80537BFF7A027988120B8ECD
:100556001203581207F07BFF50147A0279A2120B8D
:100566008EC2C3C2C4120CE0D2C3D2C4802F7A0298
:1005760079CE8026E49005C7F09005C7E0FFC394C6
:10058600105011EF90033C93FF120D069005C7E043
:1005960004F080E57BFF7A0279E0120B8E9005323B
:0305A60074FFF0EF
:0105A900222F
:1007F000120BEFEF64167003EE64EF600B7BFF7A71
:100800000279FD120B8E80FE7F2C7E01120C427B42
:10081000017A0579A1900004E0FCA3E0FDA3E0FECD
:10082000A3E0FF9005CFE4F0A37414F012095BE499
:10083000FFFE7D02FC7B0180027B00EB602E74B525
:100840002FF58274053EF583E0FB74A12DF58274CB
:10085000053CF583E06B6002C3220DBD00010C0F67
:10086000BF00010EEF64124E70CB80CDED64144CCE
:050870007002D322C359
:010875002260
:10069E0090052EE0FCA3E0FDEC90052CF0A3EDF010
:1006AE007B017A05792C9005CFE4F0A37402F07FDC
:1006BE00007E007D007C0012002690052CE0FD756A
:1006CE00F00A8475F00AA4FFED75F00A84EF25F0A8
:1006DE00FFEFFCA3E0FB75F00A8475F00AA4FFAEF1
:1006EE00F0EB75F00A847A00EF25F0FFEA3ECF2496
:1006FE0000CF3CFEA3F0A3EFF07C007D1412091492
:10070E00E4FD90000412094F900004E0FCA3E0FD0C
:10071E00A3E0FEA3E02402FFE43EFEE43DFDE43C44
:10072E00FC90000412094F7B017A007909900004B5
:10073E00E0FCA3E0FDA3E0FEA3E0FF9005CFE4F014
:10074E00A37414F012002690052FE004F0700690AA
:06075E00052EE004F0226C
:10035800C208300803020485200539E49005C8F076
:10036800A3F09005C8E0FEA3E0FFC3940AEE940052
:10037800501A741E2FF5827403120CC29005C9E03E
:1003880004F070DE9005C8E004F080D6120CEF127D
:1003980005AA80C4300560E49005CAF0A3F02000E7
:1003A80056C39005CBE0940A9005CAE094005047E4
:1003B800E49005C8F0A3F09005C8E0FEA3E0FFC3F1
:1003C800940AEE9400501A74282FF5827403120CC4
:1003D800C29005C9E004F070DE9005C8E004F08022
:1003E800D6120CEF1205AA9005CBE004F070AF907E
:1003F80005CAE004F080A730057A300077E490055C
:10040800CAF0A3F0200456C39005CBE094039005EE
:10041800CAE094005047E49005C8F0A3F09005C8DE
:10042800E0FEA3E0FFC3940AEE9400501A74322F42
:10043800F5827403120CC29005C9E004F070DE90D6
:1004480005C8E004F080D6120CE01205AA9005CB8E
:10045800E004F070AF9005CAE004F080A79005CAE8
:10046800E07004A3E06401700B7BFF7A0379071244
:0D0478000B8ED208C205C200C20402035A56
:010485002254
:060CC2003EF583E493FF00
:090CC8002003FDEFD203F58522A3
:100B28009005D1EBF0A3EAF0A3E9F09005D1E0FB42
:100B3800A3E0FAA3E0F91208E960179005D1A3E44D
:100B480075F001120926A9F0FA1208E9FF120CC87B
:030B580080D9221F
:03002300020CA12B
:100CA100C2AF309802C298309904C299C201D2AF42
:010CB1003210
:080CFE002001FDD2018F9922B3
:100B5B009005D4EBF0A3EAF0A3E9F09005D4E0FB09
:100B6B00A3E0FAA3E0F91208E960179005D4A3E417
:100B7B0075F001120926A9F0FA1208E9FF120CFE12
:030B8B0080D922EC
:080D06002002FDD2028FAD2294
:100B8E009005CCEBF0A3EAF0A3E9F09005CCE0FBE6
:100B9E00A3E0FAA3E0F91208E960179005CCA3E4EC
:100BAE0075F001120926A9F0FA1208E9FF120D06D6
:030BBE0080D922B9
:100C6000E4F5B4F5B34393F04394F075963075957D
:080C7000C0759220759110225D
:1008760020A76D30936AD2A520A760EF30E004D29E
:10088600A0800AA2A0E43354FE24FF92A0EF30E138
:1008960008A2A1E43344028006A2A1E43354FE2454
:1008A600FF92A1EF30E208A2A2E43344048006A23C
:1008B600A2E43354FE24FF92A2EF30E308A2A3E49D
:1008C6003344088006A2A3E43354FE24FF92A3D245
:1008D600A43093FDC2A5C2A47F0022C2A57F012237
:0308E6007F01226D
:100AEB00E49005D7F030A63230A004E04401F0309A
:100AFB00A1079005D7E04402F030A2079005D7E09C
:100B0B004404F030A3079005D7E04408F0D29312C9
:0C0B1B000CB2C2939005D7E0FF227F00CF
:010B270022AB
:0F0CB200E4FFE4FE000EEEB4FFFA0FEFB4FFF321
:010CC1002210
:0E0CD10000007F557E0C7D9BDDFEDEFCDFFA11
:010CDF0022F2
:0E0CE00000007FA97E187D3BDDFEDEFCDFFA02
:010CEE0022E3
:100C4200EF1FAA0670011E4A6013E4FCFDC3ED9477
:0D0C520044EC940250EA0DBD00010C80F04E
:010C5F002272
:0E0CEF0000007F117ED07D1BDDFEDEFCDFFAF3
:010CFD0022D4
:04008E007F03DFFE0F
:01009200224B
:0F0BC100A3E0FDA3A3E4FFFEE47810FC12093CBF
:020BD000AE076E
:100BD200E4FDC286EE30E704D2858002C2851200AF
:0C0BE2008ED286EE25E0FE0DEDB408E694
:010BEE0022E4
:10000300E4FED287C286FDD28612008EEE25E0FE84
:0F0013003087034401FEC2860DEDB408EAAF0644
:0100220022BB
:0A008100C2847F06120BD0D2842245
:100C7800E4FCC2847F05120BD0120003AC07EC2001
:040C8800E0F7D2843B
:010C8C002245
:100BEF00E4FEFCFDC2847F90120BD0E4FF120BD009
:100BFF00E4FF120BD0E4FF120BD0120003AC07126C
:0C0C0F000003AD07D284AF04EFFEEDFF40
:010C1B0022B6
:100026009005CB12094F120081C2847F02120BD0B9
:100036009005CB120BC19005CBA3A3E0FEA3E4FF72
:10004600E4FD7808120BCC9005CBE0FCA3E0FDA301
:10005600E0FEA3E0FF120BD09005CF74FFF5F0127F
:10006600092645F060101208E9FF120BD074012929
:0B007600F9E43AFA80E2D284020C7830
:10095B009005CB12094FC2847F03120BD09005CBAD
:10096B00120BC19005CBA3A3E0FEA3E4FFE4FDFCB7
:10097B00780812093C120BD09005CBE0FCA3E0FDEC
:10098B00A3E0FEA3E0FF120BD09005CF74FFF5F0B0
:10099B0012092645F06010120003EF1209027401D0
:0A09AB0029F9E43AFA80E2D284222E
:100AAA009005C812094F120081C2847F20120BD010
:100ABA009005C8120BC19005C8A3A3E0FEA3E4FFEA
:100ACA00E4FDFC780812093C120BD09005C8E0FC42
:100ADA00A3E0FDA3E0FEA3E0FF120BD0D284020C38
:010AEA007893
:10077000020C8DE493A3F8E493A34003F68001F206
:1007800008DFF48029E493A3F85407240CC8C3338A
:10079000C4540F4420C8834004F456800146F6DF59
:1007A000E4800B0102040810204080900A5EE47E81
:1007B000019360BCA3FF543F30E509541FFEE4934E
:1007C000A360010ECF54C025E060A840B8E493A315
:1007D000FAE493A3F8E493A3C8C582C8CAC583CA40
:1007E000F0A3C8C582C8CAC583CADFE9DEE780BEF8
:010AA900004C
:1008E900BB010689828A83E0225002E722BBFE020D
:0908F900E32289828A83E4932240
:10090200BB010689828A83F0225002F722BBFE01D4
:02091200F322CE
:10091400EF8DF0A4A8F0CF8CF0A428CE8DF0A42EF7
:02092400FE22B1
:10092600A3F8E0C5F025F0F0E58215827002158384
:06093600E0C838F0E822E1
:10093C00E8600FECC313FCED13FDEE13FEEF13FF99
:03094C00D8F122BD
:0C094F00ECF0A3EDF0A3EEF0A3EFF0221B
:00000001FF
