:03000000020506F0
:0C050600787FE4F6D8FD75812102054DD8
:100677007468652043532069730A00435320457209
:10068700726F72210A006E6F74206C6F63616C6801
:100697006F7374206E756D626572210A004944207C
:1006A7004552524F522100AAAAAA96690003200177
:1006B70022AAAAAA96690003200221AAAAAA9669D1
:1006C70000033001320001343130373235313939E6
:0906D7003430323234303831582D
:100861004200020000420000000042051800004260
:10087100051A000042051C00004A051F0000000087
:100881000371000100014605A1000100020003C13E
:0908910007C105C100C104C10644
:1009D30012098F120A01120A53E4F5B4F5B3300772
:0909E300FD120A621201B380F555
:10098F0053BAFBE5A2543FF5A275985075AC10759C
:10099F00841075D7D075D6FF758E14438E01D2ACE7
:0609AF0075AF18D2AF2263
:03008B0002073A2F
:10073A00C0E0C0F0C083C082C0D075D008C2AFE5A7
:10074A00AC30E02AC390051DE0946490051CE09447
:10075A00005016E475F001120642FE742925F0F5E0
:10076A008274053EF583E5ADF0D20753ACFEE5ACE5
:10077A0030E10553ACFDC202D2AFD0D0D082D083D3
:05078A00D0F0D0E032C8
:0300930002078FD2
:0D078F00C0E0C0F0C083C082C0D075D008AB
:10079C00C2AFE58430E029AF85C3900003E0940F2D
:1007AC00900002E094055015E475F001120642FC2D
:1007BC00740925F0F58274003CF583EFF05384FE48
:0C07CC00E58430E1055384FDC203D2AF88
:0B07D800D0D0D082D083D0F0D0E0322F
:1002AE0090000EE0FD75F00A8475F00AA4FFED755E
:1002BE00F00A84EF25F0FFEFFCA3E0FB75F00A8453
:1002CE0075F00AA4FFAEF0EB75F00A847A00EF2504
:1002DE00F0FFEA3ECF2400CF3CFE900000F0A3EFEB
:1002EE00F064044E700E900012E0B48007A3E0B4E8
:1002FE008402C205900000E0FEA3E0FF64044E708D
:10030E000E900012E0B48107A3E0B48502C200EFA4
:10031E0064044E700E900012E0B44107A3E0B445A1
:10032E0002C204900000E07004A3E064087002D2E0
:10033E0005900000E0FEA3E0FF640C4E7002D200B8
:10034E00EF64087003EE64057042D204FFFE7D88F0
:10035E00FCC3ED94ABEC940050047B0180027B0057
:10036E00EB602974092DF58274003CF583E0FB7473
:10037E00A72FF58274053EF583EBF00DBD00010C41
:10038E000DBD00010C0FBF00010E80C5E4900002F0
:03039E00F0A3F0D9
:0103A1002239
:1001B300E4FB9005D3F0900529E0B45509A3E0B41E
:1001C300AA04D2088002C2082008030202A49005F0
:1001D3002CE0FF75F00A8475F00AA4FEEF75F00AAF
:1001E30084EE25F0900008F07F0474292FF582E453
:1001F3003405F583E0FE741F2FF582E43405F5839F
:10020300E0B506010B0FEFB40AE0EB6406600302EE
:10021300029B7B0A900008E0FF240AFDE433FCEB19
:10022300C39DEC6480F8748098501574292BF58273
:10023300E43405F583E0FE9005D3E02EF00B80D483
:1002430074332FF582E43405F583E0FF9005D3E0A2
:100253006F703D7BFF7A0679771209019005D3E031
:10026300FF120A79E4FBEB25E024A1F582E43405CF
:10027300F583E0FF900534E0FEEFB5060CA3E0FE46
:10028300EFB5060590051EEBF00BEBB403D8801118
:100293007BFF7A06798280067BFF7A06798D1209C5
:0A02A30001C207E490051CF0A3F06F
:0102AD00222E
:10047800120962EF64167003EE64EF600B7BFF7A7B
:100488000679A41208CE80FE7F2C7E011209B57B66
:10049800017A05798D900004E0FCA3E0FDA3E0FE5D
:1004A800A3E0FF9005C9E4F0A37414F01206E0E499
:1004B800FFFE7D02FC7B0180027B00EB602E74A7AF
:1004C8002FF58274053EF583E0FB748D2DF582745B
:1004D800053CF583E06B600280FE0DBD00010C0F4A
:1004E800BF00010EEF64124E70CB80CDED64144C4A
:0D04F800700BC2C3C2C4120A53D2C3D2C4D7
:0105050022D3
:1003A2009005D7EBF0A3EAF0A3E9F090051AE0FC80
:1003B200A3E0FDEC900518F0A3EDF07B017A05793E
:1003C200189005C0E4F0A37402F07F007E007D0067
:1003D2007C00120026900518E0FD75F00A8475F085
:1003E2000AA4FFED75F00A84EF25F0FFEFFCA3E00D
:1003F200FB75F00A8475F00AA4FFAEF0EB75F00A03
:10040200847A00EF25F0FFEA3ECF2400CF3CFEA322
:10041200F0A3EFF07C007D14120630E4FD9000049E
:1004220012066B900004E0FCA3E0FDA3E0FEA3E053
:100432002402FFE43EFEE43DFDE43CFC9000041295
:10044200066B9005D7E0FBA3E0FAA3E0F990000465
:10045200E0FCA3E0FDA3E0FEA3E0FF9005C0E4F012
:10046200A37414F012002690051BE004F0700690AD
:06047200051AE004F0226F
:10009600200539E49005CBF0A3F09005CBE0FEA354
:1000A600E0FFC3940AEE9400501A74AE2FF58274E2
:1000B60006120A359005CCE004F070DE9005CBE020
:1000C60004F080D6120A621202AE80C4300560E4E3
:1000D6009005CDF0A3F0200056C39005CEE0940A1B
:1000E6009005CDE094005047E49005CBF0A3F09046
:1000F60005CBE0FEA3E0FFC3940AEE9400501A7409
:10010600B82FF5827406120A359005CCE004F0701B
:10011600DE9005CBE004F080D6120A621202AE90A1
:1001260005CEE004F070AF9005CDE004F080A73076
:10013600057230006FE49005CDF0A3F0200456C39D
:100146009005CEE094039005CDE094005047E490EE
:1001560005CBF0A3F09005CBE0FEA3E0FFC3940A25
:10016600EE9400501A74C22FF5827406120A359066
:1001760005CCE004F070DE9005CBE004F080D612EA
:100186000A531202AE9005CEE004F070AF9005CD92
:10019600E004F080A79005CDE07004A3E064017050
:0D01A60003120478C205C200C204020096D4
:060A35003EF583E493FF8F
:090A3B002003FDEFD203F5852232
:10089B009005DAEBF0A3EAF0A3E9F09005DAE0FBC0
:1008AB00A3E0FAA3E0F912060560179005DAA3E4BA
:1008BB0075F001120642A9F0FA120605FF120A3B67
:0308CB0080D922AF
:03002300020A14BA
:100A1400C2AF309802C298309904C299C201D2AFD1
:010A2400329F
:080A71002001FDD2018F992242
:1008CE009005DDEBF0A3EAF0A3E9F09005DDE0FB87
:1008DE00A3E0FAA3E0F912060560179005DDA3E484
:1008EE0075F001120642A9F0FA120605FF120A71FE
:0308FE0080D9227C
:080A79002002FDD2028FAD2224
:100901009005D4EBF0A3EAF0A3E9F09005D4E0FB65
:10091100A3E0FAA3E0F912060560179005D4A3E459
:1009210075F001120642A9F0FA120605FF120A79C2
:0309310080D92248
:100A01004393F04394F07596307595C075922075B7
:030A11009110221F
:1005920020A76D30936AD2A520A760EF30E004D285
:1005A200A0800AA2A0E43354FE24FF92A0EF30E11F
:1005B20008A2A1E43344028006A2A1E43354FE243B
:1005C200FF92A1EF30E208A2A2E43344048006A223
:1005D200A2E43354FE24FF92A2EF30E308A2A3E484
:1005E2003344088006A2A3E43354FE24FF92A3D22C
:1005F200A43093FDC2A5C2A47F0022C2A57F01221E
:030602007F012253
:10082400E49005E0F030A63230A004E04401F0305A
:10083400A1079005E0E04402F030A2079005E0E053
:100844004404F030A3079005E0E04408F0D293128A
:0C0854000A25C2939005E0E0FF227F001F
:010860002275
:0F0A2500E4FFE4FE000EEEB4FFFA0FEFB4FFF3B0
:010A3400229F
:0E0A440000007F557E0C7D9BDDFEDEFCDFFAA0
:010A52002281
:0E0A530000007FA97E187D3BDDFEDEFCDFFA91
:010A61002272
:1009B500EF1FAA0670011E4A6013E4FCFDC3ED9407
:0D09C50044EC940250EA0DBD00010C80F0DE
:0109D2002202
:0E0A620000007F117ED07D1BDDFEDEFCDFFA82
:010A70002263
:04008E007F03DFFE0F
:01009200224B
:0F093400A3E0FDA3A3E4FFFEE47810FC12065835
:02094300AE07FD
:10094500E4FDC286EE30E704D2858002C28512003E
:0C0955008ED286EE25E0FE0DEDB408E623
:010961002273
:10000300E4FED287C286FDD28612008EEE25E0FE84
:0F0013003087034401FEC2860DEDB408EAAF0644
:0100220022BB
:0A008100C2847F06120943D28422D4
:1009EC00E4FCC2847F05120943120003AC07EC201F
:0409FC00E0F7D284CA
:010A000022D3
:10096200E4FEFCFDC2847F90120943E4FF120943B6
:10097200E4FF120943E4FF120943120003AC071219
:0C0982000003AD07D284AF04EFFEEDFFD0
:01098E002246
:100026009005BC12066B120081C2847F021209433E
:100036009005BC1209349005BCA3A3E0FEA3E4FF1F
:10004600E4FD780812093F9005BCE0FCA3E0FDA39F
:10005600E0FEA3E0FF1209439005C074FFF5F0121D
:10006600064245F06010120605FF12094374012985
:0B007600F9E43AFA80E2D2840209ECBF
:1006E0009005C512066BC2847F031209439005C5AD
:1006F0001209349005C5A3A3E0FEA3E4FFE4FDFCCA
:1007000078081206581209439005C5E0FCA3E0FDE5
:10071000A3E0FEA3E0FF1209439005C974FFF5F0C2
:1007200012064245F06010120003EF12061E74011B
:0A07300029F9E43AFA80E2D28422AB
:1007E3009005CF12066B120081C2847F2012094349
:1007F3009005CF1209349005CFA3A3E0FEA3E4FF35
:10080300E4FDFC78081206581209439005CFE0FC7A
:10081300A3E0FDA3E0FEA3E0FF120943D284020993
:01082300ECE8
:100512000209D3E493A3F8E493A34003F68001F223
:1005220008DFF48029E493A3F85407240CC8C333EA
:10053200C4540F4420C8834004F456800146F6DFB9
:10054200E4800B0102040810204080900861E47EE0
:10055200019360BCA3FF543F30E509541FFEE493AE
:10056200A360010ECF54C025E060A840B8E493A375
:10057200FAE493A3F8E493A3C8C582C8CAC583CAA0
:10058200F0A3C8C582C8CAC583CADFE9DEE780BE58
:01089A00005D
:10060500BB010689828A83E0225002E722BBFE02F3
:09061500E32289828A83E4932226
:10061E00BB010689828A83F0225002F722BBFE01BB
:02062E00F322B5
:10063000EF8DF0A4A8F0CF8CF0A428CE8DF0A42EDE
:02064000FE2298
:10064200A3F8E0C5F025F0F0E5821582700215836B
:06065200E0C838F0E822C8
:10065800E8600FECC313FCED13FDEE13FEEF13FF80
:03066800D8F122A4
:0C066B00ECF0A3EDF0A3EEF0A3EFF02202
:00000001FF
