:0300000002026693
:0C026600787FE4F6D8FD75811E0201CD02
:1002440000000000000000000000000000000000AA
:0402540000000000A6
:10016C005396FEE5964401F5955396FDE5964402AB
:10017C00F5955396FBE5964404F5955396F7E5965D
:10018C004408F5955396EFE59654EFF5955396DFA5
:10019C00E59654DFF5955396BFE5964440F5955397
:1001AC00967FE5964480F595E59654FBF592E59699
:1001BC0054FBF591E59654F7F592E5964408F591C4
:0101CC002210
:1000F90020A76D30936AD2A520A760EF30E004D223
:10010900A0800AA2A0E43354FE24FF92A0EF30E1BC
:1001190008A2A0E43344028006A2A0E43354FD24DB
:10012900FF92A0EF30E208A2A0E43344048006A2C3
:10013900A0E43354FB24FF92A0EF30E308A2A0E42B
:100149003344088006A2A0E43354F724FF92A0D2D6
:10015900A43093FDC2A5C2A47F0022C2A57F0122BB
:030169007F0122F1
:10021900E4F51E30A62230A003431E0130A103439A
:100229001E0230A203431E0430A303431E08D293C7
:0A023900120258C293AF1E227F008C
:010243002298
:0D025800E4FFE4FE000EBEFFFB0FBFFFF54C
:010265002276
:1001CD0078087C007D007BFF7A0279447E007F14E5
:1001DD001200D3E4F51CF51D12016CE5A2543FF598
:1001ED00A2759850758E40E4F589758BC0758DFD9F
:1001FD00D28ED2ACD2AF43BA01759A5075D7C075B5
:0C020D00D6FD758E5475AF01D2AF80FE97
:10000300E709F608DFFA8046E709F208DFFA803EDF
:1000130088828C83E709F0A3DFFA8032E309F608CC
:10002300DFFA8078E309F208DFFA807088828C8334
:10003300E309F0A3DFFA806489828A83E0A3F608E8
:10004300DFFA805889828A83E0A3F208DFFA804CC2
:1000530080D280FA80C680D4806980F28033801099
:1000630080A680EA809A80A880DA80E280CA803302
:1000730089828A83ECFAE493A3C8C582C8CCC5837A
:10008300CCF0A3C8C582C8CCC583CCDFE9DEE7804A
:100093000D89828A83E493A3F608DFF9ECFAA9F0C9
:1000A300EDFB2289828A83ECFAE0A3C8C582C8CC1F
:1000B300C583CCF0A3C8C582C8CCC583CCDFEADE38
:1000C300E880DB89828A83E493A3F208DFF980CC9A
:1000D30088F0EF60010E4E60C388F0ED2402B40493
:1000E3000050B9F582EB2402B4040050AF2323453A
:0600F3008223900053730C
:00000001FF
