:100344000212000041002500410024004200000088
:1003540000021000004100220041002300011400AB
:10028C005396FEE5964401F5955396FDE59644028A
:10029C00F5955396FBE5964404F5955396F7E5963C
:1002AC004408F5955396EFE59654EFF5955396DF84
:1002BC00E59654DFF5955396BFE5964440F5955376
:1002CC00967FE5964480F595E59654FBF592E59678
:1002DC0054FBF591E59654F7F592E5964408F591A3
:0102EC0022EF
:1002190020A76D30936AD2A520A760EF30E004D201
:10022900A0800AA2A0E43354FE24FF92A0EF30E19B
:1002390008A2A0E43344028006A2A0E43354FD24BA
:10024900FF92A0EF30E208A2A0E43344048006A2A2
:10025900A0E43354FB24FF92A0EF30E308A2A0E40A
:100269003344088006A2A0E43354F724FF92A0D2B5
:10027900A43093FDC2A5C2A47F0022C2A57F01229A
:030289007F0122D0
:10000300E4F51530A62230A00343150130A10343C4
:10001300150230A20343150430A303431508D293FA
:0A00230012002EC293AF15227F00D9
:01002D0022B0
:0D002E00E4FFE4FE000EBEFFFB0FBFFFF578
:01003B0022A2
:1002ED0012028CE5A2543FF5A2759850758E40E42C
:1002FD00F589758BE0758DFED28E43BA01759A50D6
:10030D0075D7E075D6FE758E5475AF01D2AF051356
:10031D00E51370020512AE12FFE4FCFD7BE17AFFDE
:10032D00F9F8C312038050E675995A3099FDC299B8
:07033D00E4F512F51380D76F
:0300430002036550
:10036500C0E0C0F0C083C082C0D075D0081200467E
:0B037500D0D0D082D083D0F0D0E03296
:10004600E59A20E00302018C539AFE900024E59B7A
:10005600F07599683099FDC2997599013099FDC27C
:10006600997599013099FDC29975990B3099FDC220
:10007600997599013099FDC299E4F5993099FDC2B7
:10008600997599763099FDC2997599163099FDC280
:1000960099900024E0FF900023F0900025E0FE30C8
:1000A600E30302018C20E115EF6468600302018C12
:1000B600EE4402F0900024E0900022F0229000240A
:1000C600E0FF900000E0FCA3E0FDFE2402F582E4E0
:1000D6003400F583EFF0D3ED9403EC940040679081
:1000E6000006E02405F511E433F510ED6511700303
:1000F600EC6510702574022EF582E43400F583E079
:10010600F514900022E0C395149000257005E05484
:10011600FB8003E04404F04410F074022DF582E401
:100126003400F583E0F514E5112401FFE43510FEF3
:10013600C3ED9FFFEC9E4F700DE51424EA70079007
:100146000025E04408F0900025E020E40B90002311
:10015600E0FF900022E02FF0900001E004F070062E
:10016600900000E004F0900000E0FEA3E0FF241001
:10017600FDE43EFCD3EF9DEE9C400BE02410F09096
:070186000000E03400F0224C
:0300000002018D6D
:0C018D00787FE4F6D8FD7581150201D4DE
:10038000EB9FF5F0EA9E42F0E99D42F0EC6480C8F4
:0603900064809845F02294
:100199000202EDE493A3F8E493A34003F68001F28D
:1001A90008DFF48029E493A3F85407240CC8C33367
:1001B900C4540F4420C8834004F456800146F6DF36
:1001C900E4800B0102040810204080900344E47E7F
:1001D900019360BCA3FF543F30E509541FFEE4932B
:1001E900A360010ECF54C025E060A840B8E493A3F2
:1001F900FAE493A3F8E493A3C8C582C8CAC583CA1D
:10020900F0A3C8C582C8CAC583CADFE9DEE780BED4
:010364000098
:00000001FF
